{
  "_format": "hh-sol-artifact-1",
  "contractName": "TicketMarketplace",
  "sourceName": "src/backend/contracts/TicketMarketplace.sol",
  "abi": [
    {
      "inputs": [
        {
          "internalType": "string",
          "name": "_name",
          "type": "string"
        },
        {
          "internalType": "string",
          "name": "_symbol",
          "type": "string"
        },
        {
          "internalType": "uint256",
          "name": "_percentageFee",
          "type": "uint256"
        }
      ],
      "stateMutability": "nonpayable",
      "type": "constructor"
    },
    {
      "anonymous": false,
      "inputs": [
        {
          "indexed": true,
          "internalType": "address",
          "name": "owner",
          "type": "address"
        },
        {
          "indexed": true,
          "internalType": "address",
          "name": "approved",
          "type": "address"
        },
        {
          "indexed": true,
          "internalType": "uint256",
          "name": "tokenId",
          "type": "uint256"
        }
      ],
      "name": "Approval",
      "type": "event"
    },
    {
      "anonymous": false,
      "inputs": [
        {
          "indexed": true,
          "internalType": "address",
          "name": "owner",
          "type": "address"
        },
        {
          "indexed": true,
          "internalType": "address",
          "name": "operator",
          "type": "address"
        },
        {
          "indexed": false,
          "internalType": "bool",
          "name": "approved",
          "type": "bool"
        }
      ],
      "name": "ApprovalForAll",
      "type": "event"
    },
    {
      "anonymous": false,
      "inputs": [
        {
          "indexed": false,
          "internalType": "uint256",
          "name": "ticketId",
          "type": "uint256"
        },
        {
          "indexed": false,
          "internalType": "uint256",
          "name": "price",
          "type": "uint256"
        },
        {
          "indexed": true,
          "internalType": "address",
          "name": "seller",
          "type": "address"
        },
        {
          "indexed": true,
          "internalType": "address",
          "name": "buyer",
          "type": "address"
        }
      ],
      "name": "Bought",
      "type": "event"
    },
    {
      "anonymous": false,
      "inputs": [
        {
          "indexed": false,
          "internalType": "uint256",
          "name": "ticketId",
          "type": "uint256"
        },
        {
          "indexed": true,
          "internalType": "uint256",
          "name": "eventId",
          "type": "uint256"
        },
        {
          "indexed": false,
          "internalType": "uint256",
          "name": "price",
          "type": "uint256"
        },
        {
          "indexed": false,
          "internalType": "uint256",
          "name": "timestamp",
          "type": "uint256"
        },
        {
          "indexed": true,
          "internalType": "address",
          "name": "seller",
          "type": "address"
        }
      ],
      "name": "Offered",
      "type": "event"
    },
    {
      "anonymous": false,
      "inputs": [
        {
          "indexed": true,
          "internalType": "address",
          "name": "from",
          "type": "address"
        },
        {
          "indexed": true,
          "internalType": "address",
          "name": "to",
          "type": "address"
        },
        {
          "indexed": true,
          "internalType": "uint256",
          "name": "tokenId",
          "type": "uint256"
        }
      ],
      "name": "Transfer",
      "type": "event"
    },
    {
      "inputs": [
        {
          "internalType": "address",
          "name": "to",
          "type": "address"
        },
        {
          "internalType": "uint256",
          "name": "tokenId",
          "type": "uint256"
        }
      ],
      "name": "approve",
      "outputs": [],
      "stateMutability": "nonpayable",
      "type": "function"
    },
    {
      "inputs": [
        {
          "internalType": "address",
          "name": "owner",
          "type": "address"
        }
      ],
      "name": "balanceOf",
      "outputs": [
        {
          "internalType": "uint256",
          "name": "",
          "type": "uint256"
        }
      ],
      "stateMutability": "view",
      "type": "function"
    },
    {
      "inputs": [
        {
          "internalType": "bool",
          "name": "_isValid",
          "type": "bool"
        },
        {
          "internalType": "uint256",
          "name": "_amount",
          "type": "uint256"
        },
        {
          "internalType": "uint256",
          "name": "_eventId",
          "type": "uint256"
        },
        {
          "internalType": "uint256",
          "name": "_areaId",
          "type": "uint256"
        },
        {
          "internalType": "address",
          "name": "_organizer",
          "type": "address"
        },
        {
          "internalType": "uint256",
          "name": "_price",
          "type": "uint256"
        },
        {
          "internalType": "string",
          "name": "_tokenURI",
          "type": "string"
        }
      ],
      "name": "buyTicketFromOrganizer",
      "outputs": [],
      "stateMutability": "payable",
      "type": "function"
    },
    {
      "inputs": [
        {
          "internalType": "uint256",
          "name": "tokenId",
          "type": "uint256"
        }
      ],
      "name": "getApproved",
      "outputs": [
        {
          "internalType": "address",
          "name": "",
          "type": "address"
        }
      ],
      "stateMutability": "view",
      "type": "function"
    },
    {
      "inputs": [
        {
          "internalType": "address",
          "name": "owner",
          "type": "address"
        },
        {
          "internalType": "address",
          "name": "operator",
          "type": "address"
        }
      ],
      "name": "isApprovedForAll",
      "outputs": [
        {
          "internalType": "bool",
          "name": "",
          "type": "bool"
        }
      ],
      "stateMutability": "view",
      "type": "function"
    },
    {
      "inputs": [],
      "name": "name",
      "outputs": [
        {
          "internalType": "string",
          "name": "",
          "type": "string"
        }
      ],
      "stateMutability": "view",
      "type": "function"
    },
    {
      "inputs": [],
      "name": "nextTicketId",
      "outputs": [
        {
          "internalType": "uint256",
          "name": "",
          "type": "uint256"
        }
      ],
      "stateMutability": "view",
      "type": "function"
    },
    {
      "inputs": [
        {
          "internalType": "uint256",
          "name": "_ticketId",
          "type": "uint256"
        },
        {
          "internalType": "uint256",
          "name": "_price",
          "type": "uint256"
        }
      ],
      "name": "offerTicket",
      "outputs": [],
      "stateMutability": "nonpayable",
      "type": "function"
    },
    {
      "inputs": [
        {
          "internalType": "uint256",
          "name": "tokenId",
          "type": "uint256"
        }
      ],
      "name": "ownerOf",
      "outputs": [
        {
          "internalType": "address",
          "name": "",
          "type": "address"
        }
      ],
      "stateMutability": "view",
      "type": "function"
    },
    {
      "inputs": [
        {
          "internalType": "contract IERC721",
          "name": "_nft",
          "type": "address"
        },
        {
          "internalType": "uint256",
          "name": "_ticketId",
          "type": "uint256"
        },
        {
          "internalType": "string",
          "name": "_tokenURI",
          "type": "string"
        },
        {
          "internalType": "uint256",
          "name": "_organizerFeePercentage",
          "type": "uint256"
        },
        {
          "internalType": "address",
          "name": "_organizer",
          "type": "address"
        }
      ],
      "name": "purchaseTicket",
      "outputs": [],
      "stateMutability": "payable",
      "type": "function"
    },
    {
      "inputs": [
        {
          "internalType": "address",
          "name": "from",
          "type": "address"
        },
        {
          "internalType": "address",
          "name": "to",
          "type": "address"
        },
        {
          "internalType": "uint256",
          "name": "tokenId",
          "type": "uint256"
        }
      ],
      "name": "safeTransferFrom",
      "outputs": [],
      "stateMutability": "nonpayable",
      "type": "function"
    },
    {
      "inputs": [
        {
          "internalType": "address",
          "name": "from",
          "type": "address"
        },
        {
          "internalType": "address",
          "name": "to",
          "type": "address"
        },
        {
          "internalType": "uint256",
          "name": "tokenId",
          "type": "uint256"
        },
        {
          "internalType": "bytes",
          "name": "_data",
          "type": "bytes"
        }
      ],
      "name": "safeTransferFrom",
      "outputs": [],
      "stateMutability": "nonpayable",
      "type": "function"
    },
    {
      "inputs": [
        {
          "internalType": "address",
          "name": "operator",
          "type": "address"
        },
        {
          "internalType": "bool",
          "name": "approved",
          "type": "bool"
        }
      ],
      "name": "setApprovalForAll",
      "outputs": [],
      "stateMutability": "nonpayable",
      "type": "function"
    },
    {
      "inputs": [
        {
          "internalType": "bytes4",
          "name": "interfaceId",
          "type": "bytes4"
        }
      ],
      "name": "supportsInterface",
      "outputs": [
        {
          "internalType": "bool",
          "name": "",
          "type": "bool"
        }
      ],
      "stateMutability": "view",
      "type": "function"
    },
    {
      "inputs": [],
      "name": "symbol",
      "outputs": [
        {
          "internalType": "string",
          "name": "",
          "type": "string"
        }
      ],
      "stateMutability": "view",
      "type": "function"
    },
    {
      "inputs": [
        {
          "internalType": "uint256",
          "name": "",
          "type": "uint256"
        }
      ],
      "name": "tickets",
      "outputs": [
        {
          "internalType": "uint256",
          "name": "eventId",
          "type": "uint256"
        },
        {
          "internalType": "uint256",
          "name": "areaId",
          "type": "uint256"
        },
        {
          "internalType": "uint256",
          "name": "price",
          "type": "uint256"
        },
        {
          "internalType": "address payable",
          "name": "owner",
          "type": "address"
        },
        {
          "internalType": "uint256",
          "name": "timesSold",
          "type": "uint256"
        },
        {
          "internalType": "bool",
          "name": "offered",
          "type": "bool"
        },
        {
          "internalType": "bool",
          "name": "used",
          "type": "bool"
        }
      ],
      "stateMutability": "view",
      "type": "function"
    },
    {
      "inputs": [
        {
          "internalType": "uint256",
          "name": "tokenId",
          "type": "uint256"
        }
      ],
      "name": "tokenURI",
      "outputs": [
        {
          "internalType": "string",
          "name": "",
          "type": "string"
        }
      ],
      "stateMutability": "view",
      "type": "function"
    },
    {
      "inputs": [
        {
          "internalType": "address",
          "name": "from",
          "type": "address"
        },
        {
          "internalType": "address",
          "name": "to",
          "type": "address"
        },
        {
          "internalType": "uint256",
          "name": "tokenId",
          "type": "uint256"
        }
      ],
      "name": "transferFrom",
      "outputs": [],
      "stateMutability": "nonpayable",
      "type": "function"
    },
    {
      "inputs": [
        {
          "internalType": "uint256",
          "name": "_amount",
          "type": "uint256"
        },
        {
          "internalType": "address",
          "name": "_organizer",
          "type": "address"
        },
        {
          "internalType": "uint256",
          "name": "_quota",
          "type": "uint256"
        },
        {
          "internalType": "uint256",
          "name": "_startTime",
          "type": "uint256"
        },
        {
          "internalType": "uint256",
          "name": "_soldTickets",
          "type": "uint256"
        },
        {
          "internalType": "bool",
          "name": "_isCancelled",
          "type": "bool"
        },
        {
          "internalType": "bool",
          "name": "_isCompleted",
          "type": "bool"
        }
      ],
      "name": "validatePurchase",
      "outputs": [
        {
          "internalType": "bool",
          "name": "",
          "type": "bool"
        }
      ],
      "stateMutability": "view",
      "type": "function"
    }
  ],
  "bytecode": "0x608060405260016009553480156200001657600080fd5b50604051620044df380380620044df83398181016040528101906200003c919062000353565b8282600160008190555081600190805190602001906200005e929190620000cb565b50806002908051906020019062000077929190620000cb565b50505033600b60006101000a81548173ffffffffffffffffffffffffffffffffffffffff021916908373ffffffffffffffffffffffffffffffffffffffff16021790555080600a8190555050505062000452565b828054620000d9906200041c565b90600052602060002090601f016020900481019282620000fd576000855562000149565b82601f106200011857805160ff191683800117855562000149565b8280016001018555821562000149579182015b82811115620001485782518255916020019190600101906200012b565b5b5090506200015891906200015c565b5090565b5b80821115620001775760008160009055506001016200015d565b5090565b6000604051905090565b600080fd5b600080fd5b600080fd5b600080fd5b6000601f19601f8301169050919050565b7f4e487b7100000000000000000000000000000000000000000000000000000000600052604160045260246000fd5b620001e48262000199565b810181811067ffffffffffffffff82111715620002065762000205620001aa565b5b80604052505050565b60006200021b6200017b565b9050620002298282620001d9565b919050565b600067ffffffffffffffff8211156200024c576200024b620001aa565b5b620002578262000199565b9050602081019050919050565b60005b838110156200028457808201518184015260208101905062000267565b8381111562000294576000848401525b50505050565b6000620002b1620002ab846200022e565b6200020f565b905082815260208101848484011115620002d057620002cf62000194565b5b620002dd84828562000264565b509392505050565b600082601f830112620002fd57620002fc6200018f565b5b81516200030f8482602086016200029a565b91505092915050565b6000819050919050565b6200032d8162000318565b81146200033957600080fd5b50565b6000815190506200034d8162000322565b92915050565b6000806000606084860312156200036f576200036e62000185565b5b600084015167ffffffffffffffff81111562000390576200038f6200018a565b5b6200039e86828701620002e5565b935050602084015167ffffffffffffffff811115620003c257620003c16200018a565b5b620003d086828701620002e5565b9250506040620003e3868287016200033c565b9150509250925092565b7f4e487b7100000000000000000000000000000000000000000000000000000000600052602260045260246000fd5b600060028204905060018216806200043557607f821691505b602082108114156200044c576200044b620003ed565b5b50919050565b61407d80620004626000396000f3fe6080604052600436106101145760003560e01c80636031a52f116100a057806395d89b411161006457806395d89b41146103bf578063a22cb465146103ea578063b88d4fde14610413578063c87b56dd1461043c578063e985e9c51461047957610114565b80636031a52f146102c15780636352211e146102ec57806370a082311461032957806373dd5fa31461036657806386eeaf6a1461038257610114565b8063095ea7b3116100e7578063095ea7b3146101e75780631906d8181461021057806323b872dd1461022c57806342842e0e1461025557806350b447121461027e57610114565b806301ffc9a71461011957806306fdde0314610156578063081812fc146101815780630826bef3146101be575b600080fd5b34801561012557600080fd5b50610140600480360381019061013b91906126cc565b6104b6565b60405161014d9190612714565b60405180910390f35b34801561016257600080fd5b5061016b610598565b60405161017891906127c8565b60405180910390f35b34801561018d57600080fd5b506101a860048036038101906101a39190612820565b61062a565b6040516101b5919061288e565b60405180910390f35b3480156101ca57600080fd5b506101e560048036038101906101e091906128a9565b6106af565b005b3480156101f357600080fd5b5061020e60048036038101906102099190612915565b61096f565b005b61022a60048036038101906102259190612ac8565b610a87565b005b34801561023857600080fd5b50610253600480360381019061024e9190612b5f565b610eaf565b005b34801561026157600080fd5b5061027c60048036038101906102779190612b5f565b610f0f565b005b34801561028a57600080fd5b506102a560048036038101906102a09190612820565b610f2f565b6040516102b89796959493929190612be2565b60405180910390f35b3480156102cd57600080fd5b506102d6610fab565b6040516102e39190612c51565b60405180910390f35b3480156102f857600080fd5b50610313600480360381019061030e9190612820565b610fb1565b604051610320919061288e565b60405180910390f35b34801561033557600080fd5b50610350600480360381019061034b9190612c6c565b611063565b60405161035d9190612c51565b60405180910390f35b610380600480360381019061037b9190612cc5565b61111b565b005b34801561038e57600080fd5b506103a960048036038101906103a49190612d83565b611365565b6040516103b69190612714565b60405180910390f35b3480156103cb57600080fd5b506103d46113ec565b6040516103e191906127c8565b60405180910390f35b3480156103f657600080fd5b50610411600480360381019061040c9190612e25565b61147e565b005b34801561041f57600080fd5b5061043a60048036038101906104359190612f06565b611494565b005b34801561044857600080fd5b50610463600480360381019061045e9190612820565b6114f6565b60405161047091906127c8565b60405180910390f35b34801561048557600080fd5b506104a0600480360381019061049b9190612f89565b611648565b6040516104ad9190612714565b60405180910390f35b60007f80ac58cd000000000000000000000000000000000000000000000000000000007bffffffffffffffffffffffffffffffffffffffffffffffffffffffff1916827bffffffffffffffffffffffffffffffffffffffffffffffffffffffff1916148061058157507f5b5e139f000000000000000000000000000000000000000000000000000000007bffffffffffffffffffffffffffffffffffffffffffffffffffffffff1916827bffffffffffffffffffffffffffffffffffffffffffffffffffffffff1916145b806105915750610590826116dc565b5b9050919050565b6060600180546105a790612ff8565b80601f01602080910402602001604051908101604052809291908181526020018280546105d390612ff8565b80156106205780601f106105f557610100808354040283529160200191610620565b820191906000526020600020905b81548152906001019060200180831161060357829003601f168201915b5050505050905090565b600061063582611746565b610674576040517f08c379a000000000000000000000000000000000000000000000000000000000815260040161066b9061309c565b60405180910390fd5b6005600083815260200190815260200160002060009054906101000a900473ffffffffffffffffffffffffffffffffffffffff169050919050565b600260005414156106f5576040517f08c379a00000000000000000000000000000000000000000000000000000000081526004016106ec90613108565b60405180910390fd5b600260008190555060008211801561070f57506009548211155b61071857600080fd5b60006008600084815260200190815260200160002090503373ffffffffffffffffffffffffffffffffffffffff1661074f84610fb1565b73ffffffffffffffffffffffffffffffffffffffff16146107a5576040517f08c379a000000000000000000000000000000000000000000000000000000000815260040161079c90613174565b60405180910390fd5b3373ffffffffffffffffffffffffffffffffffffffff168160030160009054906101000a900473ffffffffffffffffffffffffffffffffffffffff1673ffffffffffffffffffffffffffffffffffffffff1614610837576040517f08c379a000000000000000000000000000000000000000000000000000000000815260040161082e90613206565b60405180910390fd5b8060050160019054906101000a900460ff1615610889576040517f08c379a000000000000000000000000000000000000000000000000000000000815260040161088090613272565b60405180910390fd5b8060050160009054906101000a900460ff16156108db576040517f08c379a00000000000000000000000000000000000000000000000000000000081526004016108d2906132de565b60405180910390fd5b6108e5308461096f565b81816002018190555060018160050160006101000a81548160ff0219169083151502179055503373ffffffffffffffffffffffffffffffffffffffff1681600001547f22c3b761f4813e504374bd835534fb544095ecc7ece0f0139c8a8553553adce585854260405161095a939291906132fe565b60405180910390a35060016000819055505050565b600061097a82610fb1565b90508073ffffffffffffffffffffffffffffffffffffffff168373ffffffffffffffffffffffffffffffffffffffff1614156109eb576040517f08c379a00000000000000000000000000000000000000000000000000000000081526004016109e2906133a7565b60405180910390fd5b8073ffffffffffffffffffffffffffffffffffffffff16610a0a6117b2565b73ffffffffffffffffffffffffffffffffffffffff161480610a395750610a3881610a336117b2565b611648565b5b610a78576040517f08c379a0000000000000000000000000000000000000000000000000000000008152600401610a6f90613439565b60405180910390fd5b610a8283836117ba565b505050565b60026000541415610acd576040517f08c379a0000000000000000000000000000000000000000000000000000000008152600401610ac490613108565b60405180910390fd5b6002600081905550600084118015610ae757506009548411155b610af057600080fd5b60006008600086815260200190815260200160002090506000816004015411610b1857600080fd5b8060020154341015610b2957600080fd5b8060050160019054906101000a900460ff1615610b7b576040517f08c379a0000000000000000000000000000000000000000000000000000000008152600401610b7290613272565b60405180910390fd5b6000610b8a8260020154611873565b90506000610b9c836002015486611896565b90506000836002015434610bb09190613488565b905060008460030160009054906101000a900473ffffffffffffffffffffffffffffffffffffffff1690508073ffffffffffffffffffffffffffffffffffffffff166108fc84868860020154610c069190613488565b610c109190613488565b9081150290604051600060405180830381858888f19350505050158015610c3b573d6000803e3d6000fd5b508573ffffffffffffffffffffffffffffffffffffffff166108fc849081150290604051600060405180830381858888f19350505050158015610c82573d6000803e3d6000fd5b50600b60009054906101000a900473ffffffffffffffffffffffffffffffffffffffff1673ffffffffffffffffffffffffffffffffffffffff166108fc859081150290604051600060405180830381858888f19350505050158015610ceb573d6000803e3d6000fd5b506000821115610d3d573373ffffffffffffffffffffffffffffffffffffffff166108fc839081150290604051600060405180830381858888f19350505050158015610d3b573d6000803e3d6000fd5b505b610d4789896118b8565b8973ffffffffffffffffffffffffffffffffffffffff166323b872dd82338c6040518463ffffffff1660e01b8152600401610d849392919061351b565b600060405180830381600087803b158015610d9e57600080fd5b505af1158015610db2573d6000803e3d6000fd5b50505050338560030160006101000a81548173ffffffffffffffffffffffffffffffffffffffff021916908373ffffffffffffffffffffffffffffffffffffffff16021790555060008560050160006101000a81548160ff021916908315150217905550846004016000815480929190610e2b90613552565b91905055503373ffffffffffffffffffffffffffffffffffffffff168173ffffffffffffffffffffffffffffffffffffffff167f4ebd6ef39c1235e69ba7dedf24ad43bdeb57deb289d98473668070d6ca9b685e8b8860020154604051610e9392919061359b565b60405180910390a3505050505060016000819055505050505050565b610ec0610eba6117b2565b8261192c565b610eff576040517f08c379a0000000000000000000000000000000000000000000000000000000008152600401610ef690613636565b60405180910390fd5b610f0a838383611a0a565b505050565b610f2a83838360405180602001604052806000815250611494565b505050565b60086020528060005260406000206000915090508060000154908060010154908060020154908060030160009054906101000a900473ffffffffffffffffffffffffffffffffffffffff16908060040154908060050160009054906101000a900460ff16908060050160019054906101000a900460ff16905087565b60095481565b6000806003600084815260200190815260200160002060009054906101000a900473ffffffffffffffffffffffffffffffffffffffff169050600073ffffffffffffffffffffffffffffffffffffffff168173ffffffffffffffffffffffffffffffffffffffff16141561105a576040517f08c379a0000000000000000000000000000000000000000000000000000000008152600401611051906136c8565b60405180910390fd5b80915050919050565b60008073ffffffffffffffffffffffffffffffffffffffff168273ffffffffffffffffffffffffffffffffffffffff1614156110d4576040517f08c379a00000000000000000000000000000000000000000000000000000000081526004016110cb9061375a565b60405180910390fd5b600460008373ffffffffffffffffffffffffffffffffffffffff1673ffffffffffffffffffffffffffffffffffffffff168152602001908152602001600020549050919050565b60026000541415611161576040517f08c379a000000000000000000000000000000000000000000000000000000000815260040161115890613108565b60405180910390fd5b6002600081905550866111a9576040517f08c379a00000000000000000000000000000000000000000000000000000000081526004016111a0906137c6565b60405180910390fd5b600086836111b791906137e6565b9050803410156111fc576040517f08c379a00000000000000000000000000000000000000000000000000000000081526004016111f39061388c565b60405180910390fd5b60005b87811015611227576112148787868689611c71565b808061121f90613552565b9150506111ff565b50600061123382611873565b9050600082346112439190613488565b90508573ffffffffffffffffffffffffffffffffffffffff166108fc838561126b9190613488565b9081150290604051600060405180830381858888f19350505050158015611296573d6000803e3d6000fd5b50600b60009054906101000a900473ffffffffffffffffffffffffffffffffffffffff1673ffffffffffffffffffffffffffffffffffffffff166108fc839081150290604051600060405180830381858888f193505050501580156112ff573d6000803e3d6000fd5b506000811115611351573373ffffffffffffffffffffffffffffffffffffffff166108fc829081150290604051600060405180830381858888f1935050505015801561134f573d6000803e3d6000fd5b505b505050600160008190555050505050505050565b6000600488111580156113a457508673ffffffffffffffffffffffffffffffffffffffff163373ffffffffffffffffffffffffffffffffffffffff1614155b80156113af57504285115b80156113b9575082155b80156113c3575081155b80156113ce57508386115b156113dc57600190506113e1565b600090505b979650505050505050565b6060600280546113fb90612ff8565b80601f016020809104026020016040519081016040528092919081815260200182805461142790612ff8565b80156114745780601f1061144957610100808354040283529160200191611474565b820191906000526020600020905b81548152906001019060200180831161145757829003601f168201915b5050505050905090565b6114906114896117b2565b8383611dcd565b5050565b6114a561149f6117b2565b8361192c565b6114e4576040517f08c379a00000000000000000000000000000000000000000000000000000000081526004016114db90613636565b60405180910390fd5b6114f084848484611f3a565b50505050565b606061150182611746565b611540576040517f08c379a00000000000000000000000000000000000000000000000000000000081526004016115379061391e565b60405180910390fd5b600060076000848152602001908152602001600020805461156090612ff8565b80601f016020809104026020016040519081016040528092919081815260200182805461158c90612ff8565b80156115d95780601f106115ae576101008083540402835291602001916115d9565b820191906000526020600020905b8154815290600101906020018083116115bc57829003601f168201915b5050505050905060006115ea611f96565b9050600081511415611600578192505050611643565b60008251111561163557808260405160200161161d92919061397a565b60405160208183030381529060405292505050611643565b61163e84611fad565b925050505b919050565b6000600660008473ffffffffffffffffffffffffffffffffffffffff1673ffffffffffffffffffffffffffffffffffffffff16815260200190815260200160002060008373ffffffffffffffffffffffffffffffffffffffff1673ffffffffffffffffffffffffffffffffffffffff16815260200190815260200160002060009054906101000a900460ff16905092915050565b60007f01ffc9a7000000000000000000000000000000000000000000000000000000007bffffffffffffffffffffffffffffffffffffffffffffffffffffffff1916827bffffffffffffffffffffffffffffffffffffffffffffffffffffffff1916149050919050565b60008073ffffffffffffffffffffffffffffffffffffffff166003600084815260200190815260200160002060009054906101000a900473ffffffffffffffffffffffffffffffffffffffff1673ffffffffffffffffffffffffffffffffffffffff1614159050919050565b600033905090565b816005600083815260200190815260200160002060006101000a81548173ffffffffffffffffffffffffffffffffffffffff021916908373ffffffffffffffffffffffffffffffffffffffff160217905550808273ffffffffffffffffffffffffffffffffffffffff1661182d83610fb1565b73ffffffffffffffffffffffffffffffffffffffff167f8c5be1e5ebec7d5bd14f71427d1e84f3dd0314c0f7b2291e5b200ac8c7c3b92560405160405180910390a45050565b60006064600a548361188591906137e6565b61188f91906139cd565b9050919050565b6000606482846118a691906137e6565b6118b091906139cd565b905092915050565b6118c182611746565b611900576040517f08c379a00000000000000000000000000000000000000000000000000000000081526004016118f790613a70565b60405180910390fd5b806007600084815260200190815260200160002090805190602001906119279291906125bd565b505050565b600061193782611746565b611976576040517f08c379a000000000000000000000000000000000000000000000000000000000815260040161196d90613b02565b60405180910390fd5b600061198183610fb1565b90508073ffffffffffffffffffffffffffffffffffffffff168473ffffffffffffffffffffffffffffffffffffffff1614806119f057508373ffffffffffffffffffffffffffffffffffffffff166119d88461062a565b73ffffffffffffffffffffffffffffffffffffffff16145b80611a015750611a008185611648565b5b91505092915050565b8273ffffffffffffffffffffffffffffffffffffffff16611a2a82610fb1565b73ffffffffffffffffffffffffffffffffffffffff1614611a80576040517f08c379a0000000000000000000000000000000000000000000000000000000008152600401611a7790613b94565b60405180910390fd5b600073ffffffffffffffffffffffffffffffffffffffff168273ffffffffffffffffffffffffffffffffffffffff161415611af0576040517f08c379a0000000000000000000000000000000000000000000000000000000008152600401611ae790613c26565b60405180910390fd5b611afb838383612054565b611b066000826117ba565b6001600460008573ffffffffffffffffffffffffffffffffffffffff1673ffffffffffffffffffffffffffffffffffffffff1681526020019081526020016000206000828254611b569190613488565b925050819055506001600460008473ffffffffffffffffffffffffffffffffffffffff1673ffffffffffffffffffffffffffffffffffffffff1681526020019081526020016000206000828254611bad9190613c46565b92505081905550816003600083815260200190815260200160002060006101000a81548173ffffffffffffffffffffffffffffffffffffffff021916908373ffffffffffffffffffffffffffffffffffffffff160217905550808273ffffffffffffffffffffffffffffffffffffffff168473ffffffffffffffffffffffffffffffffffffffff167fddf252ad1be2c89b69c2b068fc378daa952ba7f163c4a11628f55a4df523b3ef60405160405180910390a4611c6c838383612059565b505050565b611c7d3360095461205e565b611c89600954836118b8565b60006008600060095481526020019081526020016000209050858160000181905550848160010181905550838160020181905550338160030160006101000a81548173ffffffffffffffffffffffffffffffffffffffff021916908373ffffffffffffffffffffffffffffffffffffffff1602179055506001816004018190555060008160050160016101000a81548160ff02191690831515021790555060008160050160006101000a81548160ff0219169083151502179055503373ffffffffffffffffffffffffffffffffffffffff168273ffffffffffffffffffffffffffffffffffffffff167f4ebd6ef39c1235e69ba7dedf24ad43bdeb57deb289d98473668070d6ca9b685e60095487604051611da592919061359b565b60405180910390a360096000815480929190611dc090613552565b9190505550505050505050565b8173ffffffffffffffffffffffffffffffffffffffff168373ffffffffffffffffffffffffffffffffffffffff161415611e3c576040517f08c379a0000000000000000000000000000000000000000000000000000000008152600401611e3390613ce8565b60405180910390fd5b80600660008573ffffffffffffffffffffffffffffffffffffffff1673ffffffffffffffffffffffffffffffffffffffff16815260200190815260200160002060008473ffffffffffffffffffffffffffffffffffffffff1673ffffffffffffffffffffffffffffffffffffffff16815260200190815260200160002060006101000a81548160ff0219169083151502179055508173ffffffffffffffffffffffffffffffffffffffff168373ffffffffffffffffffffffffffffffffffffffff167f17307eab39ab6107e8899845ad3d59bd9653f200f220920489ca2b5937696c3183604051611f2d9190612714565b60405180910390a3505050565b611f45848484611a0a565b611f518484848461207c565b611f90576040517f08c379a0000000000000000000000000000000000000000000000000000000008152600401611f8790613d7a565b60405180910390fd5b50505050565b606060405180602001604052806000815250905090565b6060611fb882611746565b611ff7576040517f08c379a0000000000000000000000000000000000000000000000000000000008152600401611fee90613e0c565b60405180910390fd5b6000612001611f96565b90506000815111612021576040518060200160405280600081525061204c565b8061202b84612204565b60405160200161203c92919061397a565b6040516020818303038152906040525b915050919050565b505050565b505050565b612078828260405180602001604052806000815250612365565b5050565b600061209d8473ffffffffffffffffffffffffffffffffffffffff166123c0565b156121f7578373ffffffffffffffffffffffffffffffffffffffff1663150b7a026120c66117b2565b8786866040518563ffffffff1660e01b81526004016120e89493929190613e81565b6020604051808303816000875af192505050801561212457506040513d601f19601f820116820180604052508101906121219190613ee2565b60015b6121a7573d8060008114612154576040519150601f19603f3d011682016040523d82523d6000602084013e612159565b606091505b5060008151141561219f576040517f08c379a000000000000000000000000000000000000000000000000000000000815260040161219690613d7a565b60405180910390fd5b805181602001fd5b63150b7a0260e01b7bffffffffffffffffffffffffffffffffffffffffffffffffffffffff1916817bffffffffffffffffffffffffffffffffffffffffffffffffffffffff1916149150506121fc565b600190505b949350505050565b6060600082141561224c576040518060400160405280600181526020017f30000000000000000000000000000000000000000000000000000000000000008152509050612360565b600082905060005b6000821461227e57808061226790613552565b915050600a8261227791906139cd565b9150612254565b60008167ffffffffffffffff81111561229a5761229961299d565b5b6040519080825280601f01601f1916602001820160405280156122cc5781602001600182028036833780820191505090505b5090505b60008514612359576001826122e59190613488565b9150600a856122f49190613f0f565b60306123009190613c46565b60f81b81838151811061231657612315613f40565b5b60200101907effffffffffffffffffffffffffffffffffffffffffffffffffffffffffffff1916908160001a905350600a8561235291906139cd565b94506122d0565b8093505050505b919050565b61236f83836123e3565b61237c600084848461207c565b6123bb576040517f08c379a00000000000000000000000000000000000000000000000000000000081526004016123b290613d7a565b60405180910390fd5b505050565b6000808273ffffffffffffffffffffffffffffffffffffffff163b119050919050565b600073ffffffffffffffffffffffffffffffffffffffff168273ffffffffffffffffffffffffffffffffffffffff161415612453576040517f08c379a000000000000000000000000000000000000000000000000000000000815260040161244a90613fbb565b60405180910390fd5b61245c81611746565b1561249c576040517f08c379a000000000000000000000000000000000000000000000000000000000815260040161249390614027565b60405180910390fd5b6124a860008383612054565b6001600460008473ffffffffffffffffffffffffffffffffffffffff1673ffffffffffffffffffffffffffffffffffffffff16815260200190815260200160002060008282546124f89190613c46565b92505081905550816003600083815260200190815260200160002060006101000a81548173ffffffffffffffffffffffffffffffffffffffff021916908373ffffffffffffffffffffffffffffffffffffffff160217905550808273ffffffffffffffffffffffffffffffffffffffff16600073ffffffffffffffffffffffffffffffffffffffff167fddf252ad1be2c89b69c2b068fc378daa952ba7f163c4a11628f55a4df523b3ef60405160405180910390a46125b960008383612059565b5050565b8280546125c990612ff8565b90600052602060002090601f0160209004810192826125eb5760008555612632565b82601f1061260457805160ff1916838001178555612632565b82800160010185558215612632579182015b82811115612631578251825591602001919060010190612616565b5b50905061263f9190612643565b5090565b5b8082111561265c576000816000905550600101612644565b5090565b6000604051905090565b600080fd5b600080fd5b60007fffffffff0000000000000000000000000000000000000000000000000000000082169050919050565b6126a981612674565b81146126b457600080fd5b50565b6000813590506126c6816126a0565b92915050565b6000602082840312156126e2576126e161266a565b5b60006126f0848285016126b7565b91505092915050565b60008115159050919050565b61270e816126f9565b82525050565b60006020820190506127296000830184612705565b92915050565b600081519050919050565b600082825260208201905092915050565b60005b8381101561276957808201518184015260208101905061274e565b83811115612778576000848401525b50505050565b6000601f19601f8301169050919050565b600061279a8261272f565b6127a4818561273a565b93506127b481856020860161274b565b6127bd8161277e565b840191505092915050565b600060208201905081810360008301526127e2818461278f565b905092915050565b6000819050919050565b6127fd816127ea565b811461280857600080fd5b50565b60008135905061281a816127f4565b92915050565b6000602082840312156128365761283561266a565b5b60006128448482850161280b565b91505092915050565b600073ffffffffffffffffffffffffffffffffffffffff82169050919050565b60006128788261284d565b9050919050565b6128888161286d565b82525050565b60006020820190506128a3600083018461287f565b92915050565b600080604083850312156128c0576128bf61266a565b5b60006128ce8582860161280b565b92505060206128df8582860161280b565b9150509250929050565b6128f28161286d565b81146128fd57600080fd5b50565b60008135905061290f816128e9565b92915050565b6000806040838503121561292c5761292b61266a565b5b600061293a85828601612900565b925050602061294b8582860161280b565b9150509250929050565b60006129608261286d565b9050919050565b61297081612955565b811461297b57600080fd5b50565b60008135905061298d81612967565b92915050565b600080fd5b600080fd5b7f4e487b7100000000000000000000000000000000000000000000000000000000600052604160045260246000fd5b6129d58261277e565b810181811067ffffffffffffffff821117156129f4576129f361299d565b5b80604052505050565b6000612a07612660565b9050612a1382826129cc565b919050565b600067ffffffffffffffff821115612a3357612a3261299d565b5b612a3c8261277e565b9050602081019050919050565b82818337600083830152505050565b6000612a6b612a6684612a18565b6129fd565b905082815260208101848484011115612a8757612a86612998565b5b612a92848285612a49565b509392505050565b600082601f830112612aaf57612aae612993565b5b8135612abf848260208601612a58565b91505092915050565b600080600080600060a08688031215612ae457612ae361266a565b5b6000612af28882890161297e565b9550506020612b038882890161280b565b945050604086013567ffffffffffffffff811115612b2457612b2361266f565b5b612b3088828901612a9a565b9350506060612b418882890161280b565b9250506080612b5288828901612900565b9150509295509295909350565b600080600060608486031215612b7857612b7761266a565b5b6000612b8686828701612900565b9350506020612b9786828701612900565b9250506040612ba88682870161280b565b9150509250925092565b612bbb816127ea565b82525050565b6000612bcc8261284d565b9050919050565b612bdc81612bc1565b82525050565b600060e082019050612bf7600083018a612bb2565b612c046020830189612bb2565b612c116040830188612bb2565b612c1e6060830187612bd3565b612c2b6080830186612bb2565b612c3860a0830185612705565b612c4560c0830184612705565b98975050505050505050565b6000602082019050612c666000830184612bb2565b92915050565b600060208284031215612c8257612c8161266a565b5b6000612c9084828501612900565b91505092915050565b612ca2816126f9565b8114612cad57600080fd5b50565b600081359050612cbf81612c99565b92915050565b600080600080600080600060e0888a031215612ce457612ce361266a565b5b6000612cf28a828b01612cb0565b9750506020612d038a828b0161280b565b9650506040612d148a828b0161280b565b9550506060612d258a828b0161280b565b9450506080612d368a828b01612900565b93505060a0612d478a828b0161280b565b92505060c088013567ffffffffffffffff811115612d6857612d6761266f565b5b612d748a828b01612a9a565b91505092959891949750929550565b600080600080600080600060e0888a031215612da257612da161266a565b5b6000612db08a828b0161280b565b9750506020612dc18a828b01612900565b9650506040612dd28a828b0161280b565b9550506060612de38a828b0161280b565b9450506080612df48a828b0161280b565b93505060a0612e058a828b01612cb0565b92505060c0612e168a828b01612cb0565b91505092959891949750929550565b60008060408385031215612e3c57612e3b61266a565b5b6000612e4a85828601612900565b9250506020612e5b85828601612cb0565b9150509250929050565b600067ffffffffffffffff821115612e8057612e7f61299d565b5b612e898261277e565b9050602081019050919050565b6000612ea9612ea484612e65565b6129fd565b905082815260208101848484011115612ec557612ec4612998565b5b612ed0848285612a49565b509392505050565b600082601f830112612eed57612eec612993565b5b8135612efd848260208601612e96565b91505092915050565b60008060008060808587031215612f2057612f1f61266a565b5b6000612f2e87828801612900565b9450506020612f3f87828801612900565b9350506040612f508782880161280b565b925050606085013567ffffffffffffffff811115612f7157612f7061266f565b5b612f7d87828801612ed8565b91505092959194509250565b60008060408385031215612fa057612f9f61266a565b5b6000612fae85828601612900565b9250506020612fbf85828601612900565b9150509250929050565b7f4e487b7100000000000000000000000000000000000000000000000000000000600052602260045260246000fd5b6000600282049050600182168061301057607f821691505b6020821081141561302457613023612fc9565b5b50919050565b7f4552433732313a20617070726f76656420717565727920666f72206e6f6e657860008201527f697374656e7420746f6b656e0000000000000000000000000000000000000000602082015250565b6000613086602c8361273a565b91506130918261302a565b604082019050919050565b600060208201905081810360008301526130b581613079565b9050919050565b7f5265656e7472616e637947756172643a207265656e7472616e742063616c6c00600082015250565b60006130f2601f8361273a565b91506130fd826130bc565b602082019050919050565b60006020820190508181036000830152613121816130e5565b9050919050565b7f596f7520646f6e2774206f776e2074686973204e465400000000000000000000600082015250565b600061315e60168361273a565b915061316982613128565b602082019050919050565b6000602082019050818103600083015261318d81613151565b9050919050565b7f596f7520646f6e742068617665207065726d697373696f6e20746f2073656c6c60008201527f2074686973207469636b65740000000000000000000000000000000000000000602082015250565b60006131f0602c8361273a565b91506131fb82613194565b604082019050919050565b6000602082019050818103600083015261321f816131e3565b9050919050565b7f5469636b65742069732075736564000000000000000000000000000000000000600082015250565b600061325c600e8361273a565b915061326782613226565b602082019050919050565b6000602082019050818103600083015261328b8161324f565b9050919050565b7f5469636b657420616c7265616479206f66666572656400000000000000000000600082015250565b60006132c860168361273a565b91506132d382613292565b602082019050919050565b600060208201905081810360008301526132f7816132bb565b9050919050565b60006060820190506133136000830186612bb2565b6133206020830185612bb2565b61332d6040830184612bb2565b949350505050565b7f4552433732313a20617070726f76616c20746f2063757272656e74206f776e6560008201527f7200000000000000000000000000000000000000000000000000000000000000602082015250565b600061339160218361273a565b915061339c82613335565b604082019050919050565b600060208201905081810360008301526133c081613384565b9050919050565b7f4552433732313a20617070726f76652063616c6c6572206973206e6f74206f7760008201527f6e6572206e6f7220617070726f76656420666f7220616c6c0000000000000000602082015250565b600061342360388361273a565b915061342e826133c7565b604082019050919050565b6000602082019050818103600083015261345281613416565b9050919050565b7f4e487b7100000000000000000000000000000000000000000000000000000000600052601160045260246000fd5b6000613493826127ea565b915061349e836127ea565b9250828210156134b1576134b0613459565b5b828203905092915050565b6000819050919050565b60006134e16134dc6134d78461284d565b6134bc565b61284d565b9050919050565b60006134f3826134c6565b9050919050565b6000613505826134e8565b9050919050565b613515816134fa565b82525050565b6000606082019050613530600083018661350c565b61353d602083018561287f565b61354a6040830184612bb2565b949350505050565b600061355d826127ea565b91507fffffffffffffffffffffffffffffffffffffffffffffffffffffffffffffffff8214156135905761358f613459565b5b600182019050919050565b60006040820190506135b06000830185612bb2565b6135bd6020830184612bb2565b9392505050565b7f4552433732313a207472616e736665722063616c6c6572206973206e6f74206f60008201527f776e6572206e6f7220617070726f766564000000000000000000000000000000602082015250565b600061362060318361273a565b915061362b826135c4565b604082019050919050565b6000602082019050818103600083015261364f81613613565b9050919050565b7f4552433732313a206f776e657220717565727920666f72206e6f6e657869737460008201527f656e7420746f6b656e0000000000000000000000000000000000000000000000602082015250565b60006136b260298361273a565b91506136bd82613656565b604082019050919050565b600060208201905081810360008301526136e1816136a5565b9050919050565b7f4552433732313a2062616c616e636520717565727920666f7220746865207a6560008201527f726f206164647265737300000000000000000000000000000000000000000000602082015250565b6000613744602a8361273a565b915061374f826136e8565b604082019050919050565b6000602082019050818103600083015261377381613737565b9050919050565b7f496e76616c696420707572636861736500000000000000000000000000000000600082015250565b60006137b060108361273a565b91506137bb8261377a565b602082019050919050565b600060208201905081810360008301526137df816137a3565b9050919050565b60006137f1826127ea565b91506137fc836127ea565b9250817fffffffffffffffffffffffffffffffffffffffffffffffffffffffffffffffff048311821515161561383557613834613459565b5b828202905092915050565b7f496e73756666696369656e74207061796d656e74000000000000000000000000600082015250565b600061387660148361273a565b915061388182613840565b602082019050919050565b600060208201905081810360008301526138a581613869565b9050919050565b7f45524337323155524953746f726167653a2055524920717565727920666f722060008201527f6e6f6e6578697374656e7420746f6b656e000000000000000000000000000000602082015250565b600061390860318361273a565b9150613913826138ac565b604082019050919050565b60006020820190508181036000830152613937816138fb565b9050919050565b600081905092915050565b60006139548261272f565b61395e818561393e565b935061396e81856020860161274b565b80840191505092915050565b60006139868285613949565b91506139928284613949565b91508190509392505050565b7f4e487b7100000000000000000000000000000000000000000000000000000000600052601260045260246000fd5b60006139d8826127ea565b91506139e3836127ea565b9250826139f3576139f261399e565b5b828204905092915050565b7f45524337323155524953746f726167653a2055524920736574206f66206e6f6e60008201527f6578697374656e7420746f6b656e000000000000000000000000000000000000602082015250565b6000613a5a602e8361273a565b9150613a65826139fe565b604082019050919050565b60006020820190508181036000830152613a8981613a4d565b9050919050565b7f4552433732313a206f70657261746f7220717565727920666f72206e6f6e657860008201527f697374656e7420746f6b656e0000000000000000000000000000000000000000602082015250565b6000613aec602c8361273a565b9150613af782613a90565b604082019050919050565b60006020820190508181036000830152613b1b81613adf565b9050919050565b7f4552433732313a207472616e736665722066726f6d20696e636f72726563742060008201527f6f776e6572000000000000000000000000000000000000000000000000000000602082015250565b6000613b7e60258361273a565b9150613b8982613b22565b604082019050919050565b60006020820190508181036000830152613bad81613b71565b9050919050565b7f4552433732313a207472616e7366657220746f20746865207a65726f2061646460008201527f7265737300000000000000000000000000000000000000000000000000000000602082015250565b6000613c1060248361273a565b9150613c1b82613bb4565b604082019050919050565b60006020820190508181036000830152613c3f81613c03565b9050919050565b6000613c51826127ea565b9150613c5c836127ea565b9250827fffffffffffffffffffffffffffffffffffffffffffffffffffffffffffffffff03821115613c9157613c90613459565b5b828201905092915050565b7f4552433732313a20617070726f766520746f2063616c6c657200000000000000600082015250565b6000613cd260198361273a565b9150613cdd82613c9c565b602082019050919050565b60006020820190508181036000830152613d0181613cc5565b9050919050565b7f4552433732313a207472616e7366657220746f206e6f6e20455243373231526560008201527f63656976657220696d706c656d656e7465720000000000000000000000000000602082015250565b6000613d6460328361273a565b9150613d6f82613d08565b604082019050919050565b60006020820190508181036000830152613d9381613d57565b9050919050565b7f4552433732314d657461646174613a2055524920717565727920666f72206e6f60008201527f6e6578697374656e7420746f6b656e0000000000000000000000000000000000602082015250565b6000613df6602f8361273a565b9150613e0182613d9a565b604082019050919050565b60006020820190508181036000830152613e2581613de9565b9050919050565b600081519050919050565b600082825260208201905092915050565b6000613e5382613e2c565b613e5d8185613e37565b9350613e6d81856020860161274b565b613e768161277e565b840191505092915050565b6000608082019050613e96600083018761287f565b613ea3602083018661287f565b613eb06040830185612bb2565b8181036060830152613ec28184613e48565b905095945050505050565b600081519050613edc816126a0565b92915050565b600060208284031215613ef857613ef761266a565b5b6000613f0684828501613ecd565b91505092915050565b6000613f1a826127ea565b9150613f25836127ea565b925082613f3557613f3461399e565b5b828206905092915050565b7f4e487b7100000000000000000000000000000000000000000000000000000000600052603260045260246000fd5b7f4552433732313a206d696e7420746f20746865207a65726f2061646472657373600082015250565b6000613fa560208361273a565b9150613fb082613f6f565b602082019050919050565b60006020820190508181036000830152613fd481613f98565b9050919050565b7f4552433732313a20746f6b656e20616c7265616479206d696e74656400000000600082015250565b6000614011601c8361273a565b915061401c82613fdb565b602082019050919050565b6000602082019050818103600083015261404081614004565b905091905056fea264697066735822122090dd524fa3336bb31492b3606be091374230d431802920273a3136c932cae36d64736f6c634300080a0033",
  "linkReferences": {},
  "deployedLinkReferences": {}
}