{
  "_format": "hh-sol-artifact-1",
  "contractName": "TicketMarketplace",
  "sourceName": "src/backend/contracts/TicketMarketplace.sol",
  "abi": [
    {
      "inputs": [
        {
          "internalType": "string",
          "name": "_name",
          "type": "string"
        },
        {
          "internalType": "string",
          "name": "_symbol",
          "type": "string"
        },
        {
          "internalType": "uint256",
          "name": "_percentageFee",
          "type": "uint256"
        }
      ],
      "stateMutability": "nonpayable",
      "type": "constructor"
    },
    {
      "anonymous": false,
      "inputs": [
        {
          "indexed": true,
          "internalType": "address",
          "name": "owner",
          "type": "address"
        },
        {
          "indexed": true,
          "internalType": "address",
          "name": "approved",
          "type": "address"
        },
        {
          "indexed": true,
          "internalType": "uint256",
          "name": "tokenId",
          "type": "uint256"
        }
      ],
      "name": "Approval",
      "type": "event"
    },
    {
      "anonymous": false,
      "inputs": [
        {
          "indexed": true,
          "internalType": "address",
          "name": "owner",
          "type": "address"
        },
        {
          "indexed": true,
          "internalType": "address",
          "name": "operator",
          "type": "address"
        },
        {
          "indexed": false,
          "internalType": "bool",
          "name": "approved",
          "type": "bool"
        }
      ],
      "name": "ApprovalForAll",
      "type": "event"
    },
    {
      "anonymous": false,
      "inputs": [
        {
          "indexed": false,
          "internalType": "uint256",
          "name": "ticketId",
          "type": "uint256"
        },
        {
          "indexed": false,
          "internalType": "uint256",
          "name": "price",
          "type": "uint256"
        },
        {
          "indexed": true,
          "internalType": "address",
          "name": "seller",
          "type": "address"
        },
        {
          "indexed": true,
          "internalType": "address",
          "name": "buyer",
          "type": "address"
        }
      ],
      "name": "Bought",
      "type": "event"
    },
    {
      "anonymous": false,
      "inputs": [
        {
          "indexed": true,
          "internalType": "string",
          "name": "name",
          "type": "string"
        },
        {
          "indexed": true,
          "internalType": "address",
          "name": "organizer",
          "type": "address"
        },
        {
          "indexed": true,
          "internalType": "uint256",
          "name": "eventId",
          "type": "uint256"
        }
      ],
      "name": "NewEvent",
      "type": "event"
    },
    {
      "anonymous": false,
      "inputs": [
        {
          "indexed": false,
          "internalType": "uint256",
          "name": "eventId",
          "type": "uint256"
        },
        {
          "indexed": false,
          "internalType": "uint256",
          "name": "areaId",
          "type": "uint256"
        },
        {
          "indexed": false,
          "internalType": "uint256",
          "name": "price",
          "type": "uint256"
        },
        {
          "indexed": true,
          "internalType": "address",
          "name": "seller",
          "type": "address"
        }
      ],
      "name": "Offered",
      "type": "event"
    },
    {
      "anonymous": false,
      "inputs": [
        {
          "indexed": true,
          "internalType": "address",
          "name": "previousOwner",
          "type": "address"
        },
        {
          "indexed": true,
          "internalType": "address",
          "name": "newOwner",
          "type": "address"
        }
      ],
      "name": "OwnershipTransferred",
      "type": "event"
    },
    {
      "anonymous": false,
      "inputs": [
        {
          "indexed": true,
          "internalType": "address",
          "name": "from",
          "type": "address"
        },
        {
          "indexed": true,
          "internalType": "address",
          "name": "to",
          "type": "address"
        },
        {
          "indexed": true,
          "internalType": "uint256",
          "name": "tokenId",
          "type": "uint256"
        }
      ],
      "name": "Transfer",
      "type": "event"
    },
    {
      "inputs": [
        {
          "internalType": "address",
          "name": "to",
          "type": "address"
        },
        {
          "internalType": "uint256",
          "name": "tokenId",
          "type": "uint256"
        }
      ],
      "name": "approve",
      "outputs": [],
      "stateMutability": "nonpayable",
      "type": "function"
    },
    {
      "inputs": [
        {
          "internalType": "address",
          "name": "owner",
          "type": "address"
        }
      ],
      "name": "balanceOf",
      "outputs": [
        {
          "internalType": "uint256",
          "name": "",
          "type": "uint256"
        }
      ],
      "stateMutability": "view",
      "type": "function"
    },
    {
      "inputs": [
        {
          "internalType": "uint256",
          "name": "_amount",
          "type": "uint256"
        },
        {
          "internalType": "uint256",
          "name": "_eventId",
          "type": "uint256"
        },
        {
          "internalType": "uint256",
          "name": "_areaId",
          "type": "uint256"
        },
        {
          "internalType": "string",
          "name": "_tokenURI",
          "type": "string"
        }
      ],
      "name": "buyTicketFromOrganizer",
      "outputs": [],
      "stateMutability": "payable",
      "type": "function"
    },
    {
      "inputs": [
        {
          "internalType": "string",
          "name": "_name",
          "type": "string"
        },
        {
          "internalType": "uint256",
          "name": "_startTime",
          "type": "uint256"
        },
        {
          "internalType": "string",
          "name": "_location",
          "type": "string"
        },
        {
          "internalType": "address",
          "name": "_organizer",
          "type": "address"
        },
        {
          "internalType": "uint256",
          "name": "_organizerFeePercentage",
          "type": "uint256"
        },
        {
          "internalType": "string[]",
          "name": "_areas",
          "type": "string[]"
        },
        {
          "internalType": "uint256[]",
          "name": "_prices",
          "type": "uint256[]"
        },
        {
          "internalType": "uint256[]",
          "name": "_quotas",
          "type": "uint256[]"
        }
      ],
      "name": "createEvent",
      "outputs": [],
      "stateMutability": "nonpayable",
      "type": "function"
    },
    {
      "inputs": [
        {
          "internalType": "uint256",
          "name": "",
          "type": "uint256"
        }
      ],
      "name": "events",
      "outputs": [
        {
          "internalType": "string",
          "name": "name",
          "type": "string"
        },
        {
          "internalType": "string",
          "name": "location",
          "type": "string"
        },
        {
          "internalType": "bool",
          "name": "isCancelled",
          "type": "bool"
        },
        {
          "internalType": "bool",
          "name": "isCompleted",
          "type": "bool"
        },
        {
          "internalType": "uint256",
          "name": "startTime",
          "type": "uint256"
        },
        {
          "internalType": "address payable",
          "name": "organizer",
          "type": "address"
        },
        {
          "internalType": "uint256",
          "name": "organizerFeePercentage",
          "type": "uint256"
        },
        {
          "internalType": "uint256",
          "name": "totalAreas",
          "type": "uint256"
        }
      ],
      "stateMutability": "view",
      "type": "function"
    },
    {
      "inputs": [
        {
          "internalType": "uint256",
          "name": "tokenId",
          "type": "uint256"
        }
      ],
      "name": "getApproved",
      "outputs": [
        {
          "internalType": "address",
          "name": "",
          "type": "address"
        }
      ],
      "stateMutability": "view",
      "type": "function"
    },
    {
      "inputs": [
        {
          "internalType": "uint256",
          "name": "_eventId",
          "type": "uint256"
        },
        {
          "internalType": "uint256",
          "name": "_areaId",
          "type": "uint256"
        }
      ],
      "name": "getArea",
      "outputs": [
        {
          "components": [
            {
              "internalType": "string",
              "name": "area",
              "type": "string"
            },
            {
              "internalType": "uint256",
              "name": "price",
              "type": "uint256"
            },
            {
              "internalType": "uint256",
              "name": "quota",
              "type": "uint256"
            },
            {
              "internalType": "uint256",
              "name": "soldTickets",
              "type": "uint256"
            }
          ],
          "internalType": "struct EventManagement.Area",
          "name": "",
          "type": "tuple"
        }
      ],
      "stateMutability": "view",
      "type": "function"
    },
    {
      "inputs": [
        {
          "internalType": "address",
          "name": "owner",
          "type": "address"
        },
        {
          "internalType": "address",
          "name": "operator",
          "type": "address"
        }
      ],
      "name": "isApprovedForAll",
      "outputs": [
        {
          "internalType": "bool",
          "name": "",
          "type": "bool"
        }
      ],
      "stateMutability": "view",
      "type": "function"
    },
    {
      "inputs": [],
      "name": "name",
      "outputs": [
        {
          "internalType": "string",
          "name": "",
          "type": "string"
        }
      ],
      "stateMutability": "view",
      "type": "function"
    },
    {
      "inputs": [],
      "name": "nextEventId",
      "outputs": [
        {
          "internalType": "uint256",
          "name": "",
          "type": "uint256"
        }
      ],
      "stateMutability": "view",
      "type": "function"
    },
    {
      "inputs": [],
      "name": "nextTicketId",
      "outputs": [
        {
          "internalType": "uint256",
          "name": "",
          "type": "uint256"
        }
      ],
      "stateMutability": "view",
      "type": "function"
    },
    {
      "inputs": [
        {
          "internalType": "uint256",
          "name": "_ticketId",
          "type": "uint256"
        },
        {
          "internalType": "uint256",
          "name": "_price",
          "type": "uint256"
        }
      ],
      "name": "offerTicket",
      "outputs": [],
      "stateMutability": "nonpayable",
      "type": "function"
    },
    {
      "inputs": [],
      "name": "owner",
      "outputs": [
        {
          "internalType": "address",
          "name": "",
          "type": "address"
        }
      ],
      "stateMutability": "view",
      "type": "function"
    },
    {
      "inputs": [
        {
          "internalType": "uint256",
          "name": "tokenId",
          "type": "uint256"
        }
      ],
      "name": "ownerOf",
      "outputs": [
        {
          "internalType": "address",
          "name": "",
          "type": "address"
        }
      ],
      "stateMutability": "view",
      "type": "function"
    },
    {
      "inputs": [
        {
          "internalType": "contract IERC721",
          "name": "_nft",
          "type": "address"
        },
        {
          "internalType": "uint256",
          "name": "_ticketId",
          "type": "uint256"
        },
        {
          "internalType": "string",
          "name": "_tokenURI",
          "type": "string"
        }
      ],
      "name": "purchaseTicket",
      "outputs": [],
      "stateMutability": "payable",
      "type": "function"
    },
    {
      "inputs": [],
      "name": "renounceOwnership",
      "outputs": [],
      "stateMutability": "nonpayable",
      "type": "function"
    },
    {
      "inputs": [
        {
          "internalType": "address",
          "name": "from",
          "type": "address"
        },
        {
          "internalType": "address",
          "name": "to",
          "type": "address"
        },
        {
          "internalType": "uint256",
          "name": "tokenId",
          "type": "uint256"
        }
      ],
      "name": "safeTransferFrom",
      "outputs": [],
      "stateMutability": "nonpayable",
      "type": "function"
    },
    {
      "inputs": [
        {
          "internalType": "address",
          "name": "from",
          "type": "address"
        },
        {
          "internalType": "address",
          "name": "to",
          "type": "address"
        },
        {
          "internalType": "uint256",
          "name": "tokenId",
          "type": "uint256"
        },
        {
          "internalType": "bytes",
          "name": "_data",
          "type": "bytes"
        }
      ],
      "name": "safeTransferFrom",
      "outputs": [],
      "stateMutability": "nonpayable",
      "type": "function"
    },
    {
      "inputs": [
        {
          "internalType": "address",
          "name": "operator",
          "type": "address"
        },
        {
          "internalType": "bool",
          "name": "approved",
          "type": "bool"
        }
      ],
      "name": "setApprovalForAll",
      "outputs": [],
      "stateMutability": "nonpayable",
      "type": "function"
    },
    {
      "inputs": [
        {
          "internalType": "bytes4",
          "name": "interfaceId",
          "type": "bytes4"
        }
      ],
      "name": "supportsInterface",
      "outputs": [
        {
          "internalType": "bool",
          "name": "",
          "type": "bool"
        }
      ],
      "stateMutability": "view",
      "type": "function"
    },
    {
      "inputs": [],
      "name": "symbol",
      "outputs": [
        {
          "internalType": "string",
          "name": "",
          "type": "string"
        }
      ],
      "stateMutability": "view",
      "type": "function"
    },
    {
      "inputs": [
        {
          "internalType": "uint256",
          "name": "",
          "type": "uint256"
        }
      ],
      "name": "tickets",
      "outputs": [
        {
          "internalType": "uint256",
          "name": "eventId",
          "type": "uint256"
        },
        {
          "internalType": "uint256",
          "name": "areaId",
          "type": "uint256"
        },
        {
          "internalType": "uint256",
          "name": "price",
          "type": "uint256"
        },
        {
          "internalType": "address payable",
          "name": "owner",
          "type": "address"
        },
        {
          "internalType": "uint256",
          "name": "timesSold",
          "type": "uint256"
        },
        {
          "internalType": "bool",
          "name": "used",
          "type": "bool"
        }
      ],
      "stateMutability": "view",
      "type": "function"
    },
    {
      "inputs": [
        {
          "internalType": "uint256",
          "name": "tokenId",
          "type": "uint256"
        }
      ],
      "name": "tokenURI",
      "outputs": [
        {
          "internalType": "string",
          "name": "",
          "type": "string"
        }
      ],
      "stateMutability": "view",
      "type": "function"
    },
    {
      "inputs": [
        {
          "internalType": "address",
          "name": "from",
          "type": "address"
        },
        {
          "internalType": "address",
          "name": "to",
          "type": "address"
        },
        {
          "internalType": "uint256",
          "name": "tokenId",
          "type": "uint256"
        }
      ],
      "name": "transferFrom",
      "outputs": [],
      "stateMutability": "nonpayable",
      "type": "function"
    },
    {
      "inputs": [
        {
          "internalType": "address",
          "name": "newOwner",
          "type": "address"
        }
      ],
      "name": "transferOwnership",
      "outputs": [],
      "stateMutability": "nonpayable",
      "type": "function"
    }
  ],
  "bytecode": "0x608060405260016002556001600c553480156200001b57600080fd5b5060405162005779380380620057798339818101604052810190620000419190620002c0565b82826200006362000057620000af60201b60201c565b620000b760201b60201c565b60016003819055508160049080519060200190620000839291906200017b565b5080600590805190602001906200009c9291906200017b565b50505080600d8190555050505062000502565b600033905090565b60008060009054906101000a900473ffffffffffffffffffffffffffffffffffffffff169050816000806101000a81548173ffffffffffffffffffffffffffffffffffffffff021916908373ffffffffffffffffffffffffffffffffffffffff1602179055508173ffffffffffffffffffffffffffffffffffffffff168173ffffffffffffffffffffffffffffffffffffffff167f8be0079c531659141344cd1fd0a4f28419497f9722a3daafe3b4186f6b6457e060405160405180910390a35050565b8280546200018990620003f9565b90600052602060002090601f016020900481019282620001ad5760008555620001f9565b82601f10620001c857805160ff1916838001178555620001f9565b82800160010185558215620001f9579182015b82811115620001f8578251825591602001919060010190620001db565b5b5090506200020891906200020c565b5090565b5b80821115620002275760008160009055506001016200020d565b5090565b6000620002426200023c8462000383565b6200035a565b905082815260208101848484011115620002615762000260620004c8565b5b6200026e848285620003c3565b509392505050565b600082601f8301126200028e576200028d620004c3565b5b8151620002a08482602086016200022b565b91505092915050565b600081519050620002ba81620004e8565b92915050565b600080600060608486031215620002dc57620002db620004d2565b5b600084015167ffffffffffffffff811115620002fd57620002fc620004cd565b5b6200030b8682870162000276565b935050602084015167ffffffffffffffff8111156200032f576200032e620004cd565b5b6200033d8682870162000276565b92505060406200035086828701620002a9565b9150509250925092565b60006200036662000379565b90506200037482826200042f565b919050565b6000604051905090565b600067ffffffffffffffff821115620003a157620003a062000494565b5b620003ac82620004d7565b9050602081019050919050565b6000819050919050565b60005b83811015620003e3578082015181840152602081019050620003c6565b83811115620003f3576000848401525b50505050565b600060028204905060018216806200041257607f821691505b6020821081141562000429576200042862000465565b5b50919050565b6200043a82620004d7565b810181811067ffffffffffffffff821117156200045c576200045b62000494565b5b80604052505050565b7f4e487b7100000000000000000000000000000000000000000000000000000000600052602260045260246000fd5b7f4e487b7100000000000000000000000000000000000000000000000000000000600052604160045260246000fd5b600080fd5b600080fd5b600080fd5b600080fd5b6000601f19601f8301169050919050565b620004f381620003b9565b8114620004ff57600080fd5b50565b61526780620005126000396000f3fe6080604052600436106101665760003560e01c806370a08231116100d15780639f9d903a1161008a578063c87b56dd11610064578063c87b56dd1461054b578063d85f0da414610588578063e985e9c5146105a4578063f2fde38b146105e157610166565b80639f9d903a146104ce578063a22cb465146104f9578063b88d4fde1461052257610166565b806370a08231146103be578063715018a6146103fb57806380b62487146104125780638da5cb5b1461043b57806391501a0c1461046657806395d89b41146104a357610166565b806323b872dd1161012357806323b872dd146102a657806342842e0e146102cf5780634fc87505146102f857806350b44712146103145780636031a52f146103565780636352211e1461038157610166565b806301ffc9a71461016b57806306fdde03146101a8578063081812fc146101d35780630826bef314610210578063095ea7b3146102395780630b79143014610262575b600080fd5b34801561017757600080fd5b50610192600480360381019061018d9190613560565b61060a565b60405161019f9190613f2d565b60405180910390f35b3480156101b457600080fd5b506101bd6106ec565b6040516101ca9190613f48565b60405180910390f35b3480156101df57600080fd5b506101fa60048036038101906101f5919061376b565b61077e565b6040516102079190613e8f565b60405180910390f35b34801561021c57600080fd5b5061023760048036038101906102329190613798565b610803565b005b34801561024557600080fd5b50610260600480360381019061025b9190613520565b610a57565b005b34801561026e57600080fd5b506102896004803603810190610284919061376b565b610b6f565b60405161029d989796959493929190613f6a565b60405180910390f35b3480156102b257600080fd5b506102cd60048036038101906102c8919061340a565b610d01565b005b3480156102db57600080fd5b506102f660048036038101906102f1919061340a565b610d61565b005b610312600480360381019061030d91906135ba565b610d81565b005b34801561032057600080fd5b5061033b6004803603810190610336919061376b565b6111b3565b60405161034d96959493929190614493565b60405180910390f35b34801561036257600080fd5b5061036b61121c565b6040516103789190614418565b60405180910390f35b34801561038d57600080fd5b506103a860048036038101906103a3919061376b565b611222565b6040516103b59190613e8f565b60405180910390f35b3480156103ca57600080fd5b506103e560048036038101906103e0919061339d565b6112d4565b6040516103f29190614418565b60405180910390f35b34801561040757600080fd5b5061041061138c565b005b34801561041e57600080fd5b5061043960048036038101906104349190613629565b611414565b005b34801561044757600080fd5b5061045061177d565b60405161045d9190613e8f565b60405180910390f35b34801561047257600080fd5b5061048d60048036038101906104889190613798565b6117a6565b60405161049a91906143f6565b60405180910390f35b3480156104af57600080fd5b506104b8611898565b6040516104c59190613f48565b60405180910390f35b3480156104da57600080fd5b506104e361192a565b6040516104f09190614418565b60405180910390f35b34801561050557600080fd5b50610520600480360381019061051b91906134e0565b611930565b005b34801561052e57600080fd5b506105496004803603810190610544919061345d565b611946565b005b34801561055757600080fd5b50610572600480360381019061056d919061376b565b6119a8565b60405161057f9190613f48565b60405180910390f35b6105a2600480360381019061059d91906137d8565b611afa565b005b3480156105b057600080fd5b506105cb60048036038101906105c691906133ca565b611f61565b6040516105d89190613f2d565b60405180910390f35b3480156105ed57600080fd5b506106086004803603810190610603919061339d565b611ff5565b005b60007f80ac58cd000000000000000000000000000000000000000000000000000000007bffffffffffffffffffffffffffffffffffffffffffffffffffffffff1916827bffffffffffffffffffffffffffffffffffffffffffffffffffffffff191614806106d557507f5b5e139f000000000000000000000000000000000000000000000000000000007bffffffffffffffffffffffffffffffffffffffffffffffffffffffff1916827bffffffffffffffffffffffffffffffffffffffffffffffffffffffff1916145b806106e557506106e4826120ed565b5b9050919050565b6060600480546106fb9061484c565b80601f01602080910402602001604051908101604052809291908181526020018280546107279061484c565b80156107745780601f1061074957610100808354040283529160200191610774565b820191906000526020600020905b81548152906001019060200180831161075757829003601f168201915b5050505050905090565b600061078982612157565b6107c8576040517f08c379a00000000000000000000000000000000000000000000000000000000081526004016107bf90614296565b60405180910390fd5b6008600083815260200190815260200160002060009054906101000a900473ffffffffffffffffffffffffffffffffffffffff169050919050565b60026003541415610849576040517f08c379a0000000000000000000000000000000000000000000000000000000008152600401610840906143d6565b60405180910390fd5b60026003819055506000821180156108635750600c548211155b61086c57600080fd5b6000600b600084815260200190815260200160002090503373ffffffffffffffffffffffffffffffffffffffff166108a384611222565b73ffffffffffffffffffffffffffffffffffffffff16146108f9576040517f08c379a00000000000000000000000000000000000000000000000000000000081526004016108f090614176565b60405180910390fd5b3373ffffffffffffffffffffffffffffffffffffffff168160030160009054906101000a900473ffffffffffffffffffffffffffffffffffffffff1673ffffffffffffffffffffffffffffffffffffffff161461098b576040517f08c379a000000000000000000000000000000000000000000000000000000000815260040161098290614016565b60405180910390fd5b8060050160009054906101000a900460ff16156109dd576040517f08c379a00000000000000000000000000000000000000000000000000000000081526004016109d4906140b6565b60405180910390fd5b6109e73084610a57565b8181600201819055503373ffffffffffffffffffffffffffffffffffffffff167fd846d2cfaaa23a2723be747ef18b5d16a1484d901d581da4843cc27638c862ad8260000154836001015485604051610a429392919061445c565b60405180910390a25060016003819055505050565b6000610a6282611222565b90508073ffffffffffffffffffffffffffffffffffffffff168373ffffffffffffffffffffffffffffffffffffffff161415610ad3576040517f08c379a0000000000000000000000000000000000000000000000000000000008152600401610aca90614356565b60405180910390fd5b8073ffffffffffffffffffffffffffffffffffffffff16610af26121c3565b73ffffffffffffffffffffffffffffffffffffffff161480610b215750610b2081610b1b6121c3565b611f61565b5b610b60576040517f08c379a0000000000000000000000000000000000000000000000000000000008152600401610b5790614196565b60405180910390fd5b610b6a83836121cb565b505050565b6001602052806000526040600020600091509050806000018054610b929061484c565b80601f0160208091040260200160405190810160405280929190818152602001828054610bbe9061484c565b8015610c0b5780601f10610be057610100808354040283529160200191610c0b565b820191906000526020600020905b815481529060010190602001808311610bee57829003601f168201915b505050505090806001018054610c209061484c565b80601f0160208091040260200160405190810160405280929190818152602001828054610c4c9061484c565b8015610c995780601f10610c6e57610100808354040283529160200191610c99565b820191906000526020600020905b815481529060010190602001808311610c7c57829003601f168201915b5050505050908060020160009054906101000a900460ff16908060020160019054906101000a900460ff16908060030154908060040160009054906101000a900473ffffffffffffffffffffffffffffffffffffffff16908060050154908060060154905088565b610d12610d0c6121c3565b82612284565b610d51576040517f08c379a0000000000000000000000000000000000000000000000000000000008152600401610d4890614376565b60405180910390fd5b610d5c838383612362565b505050565b610d7c83838360405180602001604052806000815250611946565b505050565b60026003541415610dc7576040517f08c379a0000000000000000000000000000000000000000000000000000000008152600401610dbe906143d6565b60405180910390fd5b6002600381905550600082118015610de15750600c548211155b610dea57600080fd5b6000600b600084815260200190815260200160002090506000816004015411610e1257600080fd5b8060020154341015610e2357600080fd5b8060050160009054906101000a900460ff1615610e75576040517f08c379a0000000000000000000000000000000000000000000000000000000008152600401610e6c906140b6565b60405180910390fd5b6000600160008360000154815260200190815260200160002090506000610e9f83600201546125c9565b90506000610eb5846002015484600501546125ec565b90506000846002015434610ec99190614708565b905060008560030160009054906101000a900473ffffffffffffffffffffffffffffffffffffffff1690508073ffffffffffffffffffffffffffffffffffffffff166108fc84868960020154610f1f9190614708565b610f299190614708565b9081150290604051600060405180830381858888f19350505050158015610f54573d6000803e3d6000fd5b508460040160009054906101000a900473ffffffffffffffffffffffffffffffffffffffff1673ffffffffffffffffffffffffffffffffffffffff166108fc849081150290604051600060405180830381858888f19350505050158015610fbf573d6000803e3d6000fd5b50610fc861177d565b73ffffffffffffffffffffffffffffffffffffffff166108fc859081150290604051600060405180830381858888f1935050505015801561100d573d6000803e3d6000fd5b50600082111561105f573373ffffffffffffffffffffffffffffffffffffffff166108fc839081150290604051600060405180830381858888f1935050505015801561105d573d6000803e3d6000fd5b505b611069888861260e565b8873ffffffffffffffffffffffffffffffffffffffff166323b872dd82338b6040518463ffffffff1660e01b81526004016110a693929190613eaa565b600060405180830381600087803b1580156110c057600080fd5b505af11580156110d4573d6000803e3d6000fd5b50505050338660030160006101000a81548173ffffffffffffffffffffffffffffffffffffffff021916908373ffffffffffffffffffffffffffffffffffffffff160217905550856004016000815480929190611130906148af565b91905055503373ffffffffffffffffffffffffffffffffffffffff168173ffffffffffffffffffffffffffffffffffffffff167f4ebd6ef39c1235e69ba7dedf24ad43bdeb57deb289d98473668070d6ca9b685e8a8960020154604051611198929190614433565b60405180910390a35050505050506001600381905550505050565b600b6020528060005260406000206000915090508060000154908060010154908060020154908060030160009054906101000a900473ffffffffffffffffffffffffffffffffffffffff16908060040154908060050160009054906101000a900460ff16905086565b600c5481565b6000806006600084815260200190815260200160002060009054906101000a900473ffffffffffffffffffffffffffffffffffffffff169050600073ffffffffffffffffffffffffffffffffffffffff168173ffffffffffffffffffffffffffffffffffffffff1614156112cb576040517f08c379a00000000000000000000000000000000000000000000000000000000081526004016112c2906141f6565b60405180910390fd5b80915050919050565b60008073ffffffffffffffffffffffffffffffffffffffff168273ffffffffffffffffffffffffffffffffffffffff161415611345576040517f08c379a000000000000000000000000000000000000000000000000000000000815260040161133c906141d6565b60405180910390fd5b600760008373ffffffffffffffffffffffffffffffffffffffff1673ffffffffffffffffffffffffffffffffffffffff168152602001908152602001600020549050919050565b6113946121c3565b73ffffffffffffffffffffffffffffffffffffffff166113b261177d565b73ffffffffffffffffffffffffffffffffffffffff1614611408576040517f08c379a00000000000000000000000000000000000000000000000000000000081526004016113ff906142f6565b60405180910390fd5b6114126000612682565b565b61141c6121c3565b73ffffffffffffffffffffffffffffffffffffffff1661143a61177d565b73ffffffffffffffffffffffffffffffffffffffff1614611490576040517f08c379a0000000000000000000000000000000000000000000000000000000008152600401611487906142f6565b60405180910390fd5b81518351146114d4576040517f08c379a00000000000000000000000000000000000000000000000000000000081526004016114cb90614336565b60405180910390fd5b8051835114611518576040517f08c379a000000000000000000000000000000000000000000000000000000000815260040161150f906140d6565b60405180910390fd5b6064841061155b576040517f08c379a000000000000000000000000000000000000000000000000000000000815260040161155290613ff6565b60405180910390fd5b600060016000600254815260200190815260200160002090508881600001908051906020019061158c92919061301a565b50868160010190805190602001906115a592919061301a565b50878160030181905550858160040160006101000a81548173ffffffffffffffffffffffffffffffffffffffff021916908373ffffffffffffffffffffffffffffffffffffffff1602179055508481600501819055508351816006018190555060008160020160006101000a81548160ff02191690831515021790555060008160020160016101000a81548160ff02191690831515021790555060005b84518110156116fd5760008260070160006001846116609190614627565b81526020019081526020016000209050858281518110611683576116826149b6565b5b60200260200101518160000190805190602001906116a292919061301a565b508482815181106116b6576116b56149b6565b5b602002602001015181600101819055508382815181106116d9576116d86149b6565b5b602002602001015181600201819055505080806116f5906148af565b915050611642565b506002548673ffffffffffffffffffffffffffffffffffffffff168a6040516117269190613e54565b60405180910390207f2bc021fadd1aa0ed2df3d4c8a8c8e7b1f4eae1811deb4a2ba4ec8fc4ef0f12a060405160405180910390a46002600081548092919061176d906148af565b9190505550505050505050505050565b60008060009054906101000a900473ffffffffffffffffffffffffffffffffffffffff16905090565b6117ae6130a0565b6001600084815260200190815260200160002060070160008381526020019081526020016000206040518060800160405290816000820180546117f09061484c565b80601f016020809104026020016040519081016040528092919081815260200182805461181c9061484c565b80156118695780601f1061183e57610100808354040283529160200191611869565b820191906000526020600020905b81548152906001019060200180831161184c57829003601f168201915b505050505081526020016001820154815260200160028201548152602001600382015481525050905092915050565b6060600580546118a79061484c565b80601f01602080910402602001604051908101604052809291908181526020018280546118d39061484c565b80156119205780601f106118f557610100808354040283529160200191611920565b820191906000526020600020905b81548152906001019060200180831161190357829003601f168201915b5050505050905090565b60025481565b61194261193b6121c3565b8383612746565b5050565b6119576119516121c3565b83612284565b611996576040517f08c379a000000000000000000000000000000000000000000000000000000000815260040161198d90614376565b60405180910390fd5b6119a2848484846128b3565b50505050565b60606119b382612157565b6119f2576040517f08c379a00000000000000000000000000000000000000000000000000000000081526004016119e990614276565b60405180910390fd5b6000600a60008481526020019081526020016000208054611a129061484c565b80601f0160208091040260200160405190810160405280929190818152602001828054611a3e9061484c565b8015611a8b5780601f10611a6057610100808354040283529160200191611a8b565b820191906000526020600020905b815481529060010190602001808311611a6e57829003601f168201915b505050505090506000611a9c61290f565b9050600081511415611ab2578192505050611af5565b600082511115611ae7578082604051602001611acf929190613e6b565b60405160208183030381529060405292505050611af5565b611af084612926565b925050505b919050565b60026003541415611b40576040517f08c379a0000000000000000000000000000000000000000000000000000000008152600401611b37906143d6565b60405180910390fd5b60026003819055506004841115611b8c576040517f08c379a0000000000000000000000000000000000000000000000000000000008152600401611b83906142b6565b60405180910390fd5b60006001600085815260200190815260200160002090508060040160009054906101000a900473ffffffffffffffffffffffffffffffffffffffff1673ffffffffffffffffffffffffffffffffffffffff163373ffffffffffffffffffffffffffffffffffffffff161415611c36576040517f08c379a0000000000000000000000000000000000000000000000000000000008152600401611c2d906141b6565b60405180910390fd5b42816003015411611c7c576040517f08c379a0000000000000000000000000000000000000000000000000000000008152600401611c73906143b6565b60405180910390fd5b8060020160009054906101000a900460ff1615611cce576040517f08c379a0000000000000000000000000000000000000000000000000000000008152600401611cc5906142d6565b60405180910390fd5b8060020160019054906101000a900460ff1615611d20576040517f08c379a0000000000000000000000000000000000000000000000000000000008152600401611d17906140f6565b60405180910390fd5b600081600701600085815260200190815260200160002060010154905080341015611d80576040517f08c379a0000000000000000000000000000000000000000000000000000000008152600401611d7790614256565b60405180910390fd5b816007016000858152602001908152602001600020600301548260070160008681526020019081526020016000206002015411611df2576040517f08c379a0000000000000000000000000000000000000000000000000000000008152600401611de990614396565b60405180910390fd5b60005b86811015611e1c57611e09868684876129cd565b8080611e14906148af565b915050611df5565b506000611e28826125c9565b905060008234611e389190614708565b90508360040160009054906101000a900473ffffffffffffffffffffffffffffffffffffffff1673ffffffffffffffffffffffffffffffffffffffff166108fc8385611e849190614708565b9081150290604051600060405180830381858888f19350505050158015611eaf573d6000803e3d6000fd5b50611eb861177d565b73ffffffffffffffffffffffffffffffffffffffff166108fc839081150290604051600060405180830381858888f19350505050158015611efd573d6000803e3d6000fd5b506000811115611f4f573373ffffffffffffffffffffffffffffffffffffffff166108fc829081150290604051600060405180830381858888f19350505050158015611f4d573d6000803e3d6000fd5b505b50505050600160038190555050505050565b6000600960008473ffffffffffffffffffffffffffffffffffffffff1673ffffffffffffffffffffffffffffffffffffffff16815260200190815260200160002060008373ffffffffffffffffffffffffffffffffffffffff1673ffffffffffffffffffffffffffffffffffffffff16815260200190815260200160002060009054906101000a900460ff16905092915050565b611ffd6121c3565b73ffffffffffffffffffffffffffffffffffffffff1661201b61177d565b73ffffffffffffffffffffffffffffffffffffffff1614612071576040517f08c379a0000000000000000000000000000000000000000000000000000000008152600401612068906142f6565b60405180910390fd5b600073ffffffffffffffffffffffffffffffffffffffff168173ffffffffffffffffffffffffffffffffffffffff1614156120e1576040517f08c379a00000000000000000000000000000000000000000000000000000000081526004016120d890614056565b60405180910390fd5b6120ea81612682565b50565b60007f01ffc9a7000000000000000000000000000000000000000000000000000000007bffffffffffffffffffffffffffffffffffffffffffffffffffffffff1916827bffffffffffffffffffffffffffffffffffffffffffffffffffffffff1916149050919050565b60008073ffffffffffffffffffffffffffffffffffffffff166006600084815260200190815260200160002060009054906101000a900473ffffffffffffffffffffffffffffffffffffffff1673ffffffffffffffffffffffffffffffffffffffff1614159050919050565b600033905090565b816008600083815260200190815260200160002060006101000a81548173ffffffffffffffffffffffffffffffffffffffff021916908373ffffffffffffffffffffffffffffffffffffffff160217905550808273ffffffffffffffffffffffffffffffffffffffff1661223e83611222565b73ffffffffffffffffffffffffffffffffffffffff167f8c5be1e5ebec7d5bd14f71427d1e84f3dd0314c0f7b2291e5b200ac8c7c3b92560405160405180910390a45050565b600061228f82612157565b6122ce576040517f08c379a00000000000000000000000000000000000000000000000000000000081526004016122c590614156565b60405180910390fd5b60006122d983611222565b90508073ffffffffffffffffffffffffffffffffffffffff168473ffffffffffffffffffffffffffffffffffffffff16148061234857508373ffffffffffffffffffffffffffffffffffffffff166123308461077e565b73ffffffffffffffffffffffffffffffffffffffff16145b8061235957506123588185611f61565b5b91505092915050565b8273ffffffffffffffffffffffffffffffffffffffff1661238282611222565b73ffffffffffffffffffffffffffffffffffffffff16146123d8576040517f08c379a00000000000000000000000000000000000000000000000000000000081526004016123cf90614076565b60405180910390fd5b600073ffffffffffffffffffffffffffffffffffffffff168273ffffffffffffffffffffffffffffffffffffffff161415612448576040517f08c379a000000000000000000000000000000000000000000000000000000000815260040161243f90614116565b60405180910390fd5b612453838383612aa2565b61245e6000826121cb565b6001600760008573ffffffffffffffffffffffffffffffffffffffff1673ffffffffffffffffffffffffffffffffffffffff16815260200190815260200160002060008282546124ae9190614708565b925050819055506001600760008473ffffffffffffffffffffffffffffffffffffffff1673ffffffffffffffffffffffffffffffffffffffff16815260200190815260200160002060008282546125059190614627565b92505081905550816006600083815260200190815260200160002060006101000a81548173ffffffffffffffffffffffffffffffffffffffff021916908373ffffffffffffffffffffffffffffffffffffffff160217905550808273ffffffffffffffffffffffffffffffffffffffff168473ffffffffffffffffffffffffffffffffffffffff167fddf252ad1be2c89b69c2b068fc378daa952ba7f163c4a11628f55a4df523b3ef60405160405180910390a46125c4838383612aa7565b505050565b60006064600d54836125db91906146ae565b6125e5919061467d565b9050919050565b6000606482846125fc91906146ae565b612606919061467d565b905092915050565b61261782612157565b612656576040517f08c379a000000000000000000000000000000000000000000000000000000000815260040161264d90614216565b60405180910390fd5b80600a6000848152602001908152602001600020908051906020019061267d92919061301a565b505050565b60008060009054906101000a900473ffffffffffffffffffffffffffffffffffffffff169050816000806101000a81548173ffffffffffffffffffffffffffffffffffffffff021916908373ffffffffffffffffffffffffffffffffffffffff1602179055508173ffffffffffffffffffffffffffffffffffffffff168173ffffffffffffffffffffffffffffffffffffffff167f8be0079c531659141344cd1fd0a4f28419497f9722a3daafe3b4186f6b6457e060405160405180910390a35050565b8173ffffffffffffffffffffffffffffffffffffffff168373ffffffffffffffffffffffffffffffffffffffff1614156127b5576040517f08c379a00000000000000000000000000000000000000000000000000000000081526004016127ac90614136565b60405180910390fd5b80600960008573ffffffffffffffffffffffffffffffffffffffff1673ffffffffffffffffffffffffffffffffffffffff16815260200190815260200160002060008473ffffffffffffffffffffffffffffffffffffffff1673ffffffffffffffffffffffffffffffffffffffff16815260200190815260200160002060006101000a81548160ff0219169083151502179055508173ffffffffffffffffffffffffffffffffffffffff168373ffffffffffffffffffffffffffffffffffffffff167f17307eab39ab6107e8899845ad3d59bd9653f200f220920489ca2b5937696c31836040516128a69190613f2d565b60405180910390a3505050565b6128be848484612362565b6128ca84848484612aac565b612909576040517f08c379a000000000000000000000000000000000000000000000000000000000815260040161290090614036565b60405180910390fd5b50505050565b606060405180602001604052806000815250905090565b606061293182612157565b612970576040517f08c379a000000000000000000000000000000000000000000000000000000000815260040161296790614316565b60405180910390fd5b600061297a61290f565b9050600081511161299a57604051806020016040528060008152506129c5565b806129a484612c43565b6040516020016129b5929190613e6b565b6040516020818303038152906040525b915050919050565b6129d933600c54612da4565b6129e5600c548261260e565b6000600b6000600c5481526020019081526020016000209050848160000181905550838160010181905550828160020181905550338160030160006101000a81548173ffffffffffffffffffffffffffffffffffffffff021916908373ffffffffffffffffffffffffffffffffffffffff1602179055506001816004018190555060008160050160006101000a81548160ff021916908315150217905550600c6000815480929190612a96906148af565b91905055505050505050565b505050565b505050565b6000612acd8473ffffffffffffffffffffffffffffffffffffffff16612dc2565b15612c36578373ffffffffffffffffffffffffffffffffffffffff1663150b7a02612af66121c3565b8786866040518563ffffffff1660e01b8152600401612b189493929190613ee1565b602060405180830381600087803b158015612b3257600080fd5b505af1925050508015612b6357506040513d601f19601f82011682018060405250810190612b60919061358d565b60015b612be6573d8060008114612b93576040519150601f19603f3d011682016040523d82523d6000602084013e612b98565b606091505b50600081511415612bde576040517f08c379a0000000000000000000000000000000000000000000000000000000008152600401612bd590614036565b60405180910390fd5b805181602001fd5b63150b7a0260e01b7bffffffffffffffffffffffffffffffffffffffffffffffffffffffff1916817bffffffffffffffffffffffffffffffffffffffffffffffffffffffff191614915050612c3b565b600190505b949350505050565b60606000821415612c8b576040518060400160405280600181526020017f30000000000000000000000000000000000000000000000000000000000000008152509050612d9f565b600082905060005b60008214612cbd578080612ca6906148af565b915050600a82612cb6919061467d565b9150612c93565b60008167ffffffffffffffff811115612cd957612cd86149e5565b5b6040519080825280601f01601f191660200182016040528015612d0b5781602001600182028036833780820191505090505b5090505b60008514612d9857600182612d249190614708565b9150600a85612d3391906148f8565b6030612d3f9190614627565b60f81b818381518110612d5557612d546149b6565b5b60200101907effffffffffffffffffffffffffffffffffffffffffffffffffffffffffffff1916908160001a905350600a85612d91919061467d565b9450612d0f565b8093505050505b919050565b612dbe828260405180602001604052806000815250612de5565b5050565b6000808273ffffffffffffffffffffffffffffffffffffffff163b119050919050565b612def8383612e40565b612dfc6000848484612aac565b612e3b576040517f08c379a0000000000000000000000000000000000000000000000000000000008152600401612e3290614036565b60405180910390fd5b505050565b600073ffffffffffffffffffffffffffffffffffffffff168273ffffffffffffffffffffffffffffffffffffffff161415612eb0576040517f08c379a0000000000000000000000000000000000000000000000000000000008152600401612ea790614236565b60405180910390fd5b612eb981612157565b15612ef9576040517f08c379a0000000000000000000000000000000000000000000000000000000008152600401612ef090614096565b60405180910390fd5b612f0560008383612aa2565b6001600760008473ffffffffffffffffffffffffffffffffffffffff1673ffffffffffffffffffffffffffffffffffffffff1681526020019081526020016000206000828254612f559190614627565b92505081905550816006600083815260200190815260200160002060006101000a81548173ffffffffffffffffffffffffffffffffffffffff021916908373ffffffffffffffffffffffffffffffffffffffff160217905550808273ffffffffffffffffffffffffffffffffffffffff16600073ffffffffffffffffffffffffffffffffffffffff167fddf252ad1be2c89b69c2b068fc378daa952ba7f163c4a11628f55a4df523b3ef60405160405180910390a461301660008383612aa7565b5050565b8280546130269061484c565b90600052602060002090601f016020900481019282613048576000855561308f565b82601f1061306157805160ff191683800117855561308f565b8280016001018555821561308f579182015b8281111561308e578251825591602001919060010190613073565b5b50905061309c91906130c8565b5090565b6040518060800160405280606081526020016000815260200160008152602001600081525090565b5b808211156130e15760008160009055506001016130c9565b5090565b60006130f86130f384614519565b6144f4565b9050808382526020820190508285602086028201111561311b5761311a614a19565b5b60005b8581101561316957813567ffffffffffffffff81111561314157613140614a14565b5b80860161314e898261335a565b8552602085019450602084019350505060018101905061311e565b5050509392505050565b600061318661318184614545565b6144f4565b905080838252602082019050828560208602820111156131a9576131a8614a19565b5b60005b858110156131d957816131bf8882613388565b8452602084019350602083019250506001810190506131ac565b5050509392505050565b60006131f66131f184614571565b6144f4565b90508281526020810184848401111561321257613211614a1e565b5b61321d84828561480a565b509392505050565b6000613238613233846145a2565b6144f4565b90508281526020810184848401111561325457613253614a1e565b5b61325f84828561480a565b509392505050565b600081359050613276816151be565b92915050565b600082601f83011261329157613290614a14565b5b81356132a18482602086016130e5565b91505092915050565b600082601f8301126132bf576132be614a14565b5b81356132cf848260208601613173565b91505092915050565b6000813590506132e7816151d5565b92915050565b6000813590506132fc816151ec565b92915050565b600081519050613311816151ec565b92915050565b600082601f83011261332c5761332b614a14565b5b813561333c8482602086016131e3565b91505092915050565b60008135905061335481615203565b92915050565b600082601f83011261336f5761336e614a14565b5b813561337f848260208601613225565b91505092915050565b6000813590506133978161521a565b92915050565b6000602082840312156133b3576133b2614a28565b5b60006133c184828501613267565b91505092915050565b600080604083850312156133e1576133e0614a28565b5b60006133ef85828601613267565b925050602061340085828601613267565b9150509250929050565b60008060006060848603121561342357613422614a28565b5b600061343186828701613267565b935050602061344286828701613267565b925050604061345386828701613388565b9150509250925092565b6000806000806080858703121561347757613476614a28565b5b600061348587828801613267565b945050602061349687828801613267565b93505060406134a787828801613388565b925050606085013567ffffffffffffffff8111156134c8576134c7614a23565b5b6134d487828801613317565b91505092959194509250565b600080604083850312156134f7576134f6614a28565b5b600061350585828601613267565b9250506020613516858286016132d8565b9150509250929050565b6000806040838503121561353757613536614a28565b5b600061354585828601613267565b925050602061355685828601613388565b9150509250929050565b60006020828403121561357657613575614a28565b5b6000613584848285016132ed565b91505092915050565b6000602082840312156135a3576135a2614a28565b5b60006135b184828501613302565b91505092915050565b6000806000606084860312156135d3576135d2614a28565b5b60006135e186828701613345565b93505060206135f286828701613388565b925050604084013567ffffffffffffffff81111561361357613612614a23565b5b61361f8682870161335a565b9150509250925092565b600080600080600080600080610100898b03121561364a57613649614a28565b5b600089013567ffffffffffffffff81111561366857613667614a23565b5b6136748b828c0161335a565b98505060206136858b828c01613388565b975050604089013567ffffffffffffffff8111156136a6576136a5614a23565b5b6136b28b828c0161335a565b96505060606136c38b828c01613267565b95505060806136d48b828c01613388565b94505060a089013567ffffffffffffffff8111156136f5576136f4614a23565b5b6137018b828c0161327c565b93505060c089013567ffffffffffffffff81111561372257613721614a23565b5b61372e8b828c016132aa565b92505060e089013567ffffffffffffffff81111561374f5761374e614a23565b5b61375b8b828c016132aa565b9150509295985092959890939650565b60006020828403121561378157613780614a28565b5b600061378f84828501613388565b91505092915050565b600080604083850312156137af576137ae614a28565b5b60006137bd85828601613388565b92505060206137ce85828601613388565b9150509250929050565b600080600080608085870312156137f2576137f1614a28565b5b600061380087828801613388565b945050602061381187828801613388565b935050604061382287828801613388565b925050606085013567ffffffffffffffff81111561384357613842614a23565b5b61384f8782880161335a565b91505092959194509250565b613864816147d4565b82525050565b6138738161474e565b82525050565b6138828161473c565b82525050565b61389181614760565b82525050565b60006138a2826145d3565b6138ac81856145e9565b93506138bc818560208601614819565b6138c581614a2d565b840191505092915050565b60006138db826145de565b6138e581856145fa565b93506138f5818560208601614819565b6138fe81614a2d565b840191505092915050565b6000613914826145de565b61391e818561460b565b935061392e818560208601614819565b61393781614a2d565b840191505092915050565b600061394d826145de565b613957818561461c565b9350613967818560208601614819565b80840191505092915050565b6000613980601b8361460b565b915061398b82614a3e565b602082019050919050565b60006139a3602c8361460b565b91506139ae82614a67565b604082019050919050565b60006139c660328361460b565b91506139d182614ab6565b604082019050919050565b60006139e960268361460b565b91506139f482614b05565b604082019050919050565b6000613a0c60258361460b565b9150613a1782614b54565b604082019050919050565b6000613a2f601c8361460b565b9150613a3a82614ba3565b602082019050919050565b6000613a52600e8361460b565b9150613a5d82614bcc565b602082019050919050565b6000613a7560168361460b565b9150613a8082614bf5565b602082019050919050565b6000613a9860128361460b565b9150613aa382614c1e565b602082019050919050565b6000613abb60248361460b565b9150613ac682614c47565b604082019050919050565b6000613ade60198361460b565b9150613ae982614c96565b602082019050919050565b6000613b01602c8361460b565b9150613b0c82614cbf565b604082019050919050565b6000613b2460168361460b565b9150613b2f82614d0e565b602082019050919050565b6000613b4760388361460b565b9150613b5282614d37565b604082019050919050565b6000613b6a60138361460b565b9150613b7582614d86565b602082019050919050565b6000613b8d602a8361460b565b9150613b9882614daf565b604082019050919050565b6000613bb060298361460b565b9150613bbb82614dfe565b604082019050919050565b6000613bd3602e8361460b565b9150613bde82614e4d565b604082019050919050565b6000613bf660208361460b565b9150613c0182614e9c565b602082019050919050565b6000613c1960148361460b565b9150613c2482614ec5565b602082019050919050565b6000613c3c60318361460b565b9150613c4782614eee565b604082019050919050565b6000613c5f602c8361460b565b9150613c6a82614f3d565b604082019050919050565b6000613c8260168361460b565b9150613c8d82614f8c565b602082019050919050565b6000613ca560128361460b565b9150613cb082614fb5565b602082019050919050565b6000613cc860208361460b565b9150613cd382614fde565b602082019050919050565b6000613ceb602f8361460b565b9150613cf682615007565b604082019050919050565b6000613d0e60238361460b565b9150613d1982615056565b604082019050919050565b6000613d3160218361460b565b9150613d3c826150a5565b604082019050919050565b6000613d5460318361460b565b9150613d5f826150f4565b604082019050919050565b6000613d7760088361460b565b9150613d8282615143565b602082019050919050565b6000613d9a60118361460b565b9150613da58261516c565b602082019050919050565b6000613dbd601f8361460b565b9150613dc882615195565b602082019050919050565b60006080830160008301518482036000860152613df082826138d0565b9150506020830151613e056020860182613e36565b506040830151613e186040860182613e36565b506060830151613e2b6060860182613e36565b508091505092915050565b613e3f816147ca565b82525050565b613e4e816147ca565b82525050565b6000613e608284613942565b915081905092915050565b6000613e778285613942565b9150613e838284613942565b91508190509392505050565b6000602082019050613ea46000830184613879565b92915050565b6000606082019050613ebf600083018661385b565b613ecc6020830185613879565b613ed96040830184613e45565b949350505050565b6000608082019050613ef66000830187613879565b613f036020830186613879565b613f106040830185613e45565b8181036060830152613f228184613897565b905095945050505050565b6000602082019050613f426000830184613888565b92915050565b60006020820190508181036000830152613f628184613909565b905092915050565b6000610100820190508181036000830152613f85818b613909565b90508181036020830152613f99818a613909565b9050613fa86040830189613888565b613fb56060830188613888565b613fc26080830187613e45565b613fcf60a083018661386a565b613fdc60c0830185613e45565b613fe960e0830184613e45565b9998505050505050505050565b6000602082019050818103600083015261400f81613973565b9050919050565b6000602082019050818103600083015261402f81613996565b9050919050565b6000602082019050818103600083015261404f816139b9565b9050919050565b6000602082019050818103600083015261406f816139dc565b9050919050565b6000602082019050818103600083015261408f816139ff565b9050919050565b600060208201905081810360008301526140af81613a22565b9050919050565b600060208201905081810360008301526140cf81613a45565b9050919050565b600060208201905081810360008301526140ef81613a68565b9050919050565b6000602082019050818103600083015261410f81613a8b565b9050919050565b6000602082019050818103600083015261412f81613aae565b9050919050565b6000602082019050818103600083015261414f81613ad1565b9050919050565b6000602082019050818103600083015261416f81613af4565b9050919050565b6000602082019050818103600083015261418f81613b17565b9050919050565b600060208201905081810360008301526141af81613b3a565b9050919050565b600060208201905081810360008301526141cf81613b5d565b9050919050565b600060208201905081810360008301526141ef81613b80565b9050919050565b6000602082019050818103600083015261420f81613ba3565b9050919050565b6000602082019050818103600083015261422f81613bc6565b9050919050565b6000602082019050818103600083015261424f81613be9565b9050919050565b6000602082019050818103600083015261426f81613c0c565b9050919050565b6000602082019050818103600083015261428f81613c2f565b9050919050565b600060208201905081810360008301526142af81613c52565b9050919050565b600060208201905081810360008301526142cf81613c75565b9050919050565b600060208201905081810360008301526142ef81613c98565b9050919050565b6000602082019050818103600083015261430f81613cbb565b9050919050565b6000602082019050818103600083015261432f81613cde565b9050919050565b6000602082019050818103600083015261434f81613d01565b9050919050565b6000602082019050818103600083015261436f81613d24565b9050919050565b6000602082019050818103600083015261438f81613d47565b9050919050565b600060208201905081810360008301526143af81613d6a565b9050919050565b600060208201905081810360008301526143cf81613d8d565b9050919050565b600060208201905081810360008301526143ef81613db0565b9050919050565b600060208201905081810360008301526144108184613dd3565b905092915050565b600060208201905061442d6000830184613e45565b92915050565b60006040820190506144486000830185613e45565b6144556020830184613e45565b9392505050565b60006060820190506144716000830186613e45565b61447e6020830185613e45565b61448b6040830184613e45565b949350505050565b600060c0820190506144a86000830189613e45565b6144b56020830188613e45565b6144c26040830187613e45565b6144cf606083018661386a565b6144dc6080830185613e45565b6144e960a0830184613888565b979650505050505050565b60006144fe61450f565b905061450a828261487e565b919050565b6000604051905090565b600067ffffffffffffffff821115614534576145336149e5565b5b602082029050602081019050919050565b600067ffffffffffffffff8211156145605761455f6149e5565b5b602082029050602081019050919050565b600067ffffffffffffffff82111561458c5761458b6149e5565b5b61459582614a2d565b9050602081019050919050565b600067ffffffffffffffff8211156145bd576145bc6149e5565b5b6145c682614a2d565b9050602081019050919050565b600081519050919050565b600081519050919050565b600082825260208201905092915050565b600082825260208201905092915050565b600082825260208201905092915050565b600081905092915050565b6000614632826147ca565b915061463d836147ca565b9250827fffffffffffffffffffffffffffffffffffffffffffffffffffffffffffffffff0382111561467257614671614929565b5b828201905092915050565b6000614688826147ca565b9150614693836147ca565b9250826146a3576146a2614958565b5b828204905092915050565b60006146b9826147ca565b91506146c4836147ca565b9250817fffffffffffffffffffffffffffffffffffffffffffffffffffffffffffffffff04831182151516156146fd576146fc614929565b5b828202905092915050565b6000614713826147ca565b915061471e836147ca565b92508282101561473157614730614929565b5b828203905092915050565b6000614747826147aa565b9050919050565b6000614759826147aa565b9050919050565b60008115159050919050565b60007fffffffff0000000000000000000000000000000000000000000000000000000082169050919050565b60006147a38261473c565b9050919050565b600073ffffffffffffffffffffffffffffffffffffffff82169050919050565b6000819050919050565b60006147df826147e6565b9050919050565b60006147f1826147f8565b9050919050565b6000614803826147aa565b9050919050565b82818337600083830152505050565b60005b8381101561483757808201518184015260208101905061481c565b83811115614846576000848401525b50505050565b6000600282049050600182168061486457607f821691505b6020821081141561487857614877614987565b5b50919050565b61488782614a2d565b810181811067ffffffffffffffff821117156148a6576148a56149e5565b5b80604052505050565b60006148ba826147ca565b91507fffffffffffffffffffffffffffffffffffffffffffffffffffffffffffffffff8214156148ed576148ec614929565b5b600182019050919050565b6000614903826147ca565b915061490e836147ca565b92508261491e5761491d614958565b5b828206905092915050565b7f4e487b7100000000000000000000000000000000000000000000000000000000600052601160045260246000fd5b7f4e487b7100000000000000000000000000000000000000000000000000000000600052601260045260246000fd5b7f4e487b7100000000000000000000000000000000000000000000000000000000600052602260045260246000fd5b7f4e487b7100000000000000000000000000000000000000000000000000000000600052603260045260246000fd5b7f4e487b7100000000000000000000000000000000000000000000000000000000600052604160045260246000fd5b600080fd5b600080fd5b600080fd5b600080fd5b600080fd5b6000601f19601f8301169050919050565b7f4f7267616e697a6572206665652063616e277420626520313030250000000000600082015250565b7f596f7520646f6e742068617665207065726d697373696f6e20746f2073656c6c60008201527f2074686973207469636b65740000000000000000000000000000000000000000602082015250565b7f4552433732313a207472616e7366657220746f206e6f6e20455243373231526560008201527f63656976657220696d706c656d656e7465720000000000000000000000000000602082015250565b7f4f776e61626c653a206e6577206f776e657220697320746865207a65726f206160008201527f6464726573730000000000000000000000000000000000000000000000000000602082015250565b7f4552433732313a207472616e736665722066726f6d20696e636f72726563742060008201527f6f776e6572000000000000000000000000000000000000000000000000000000602082015250565b7f4552433732313a20746f6b656e20616c7265616479206d696e74656400000000600082015250565b7f5469636b65742069732075736564000000000000000000000000000000000000600082015250565b7f51756f746173206c656e677468206d69736d6174636800000000000000000000600082015250565b7f4576656e7420697320636f6d706c657465640000000000000000000000000000600082015250565b7f4552433732313a207472616e7366657220746f20746865207a65726f2061646460008201527f7265737300000000000000000000000000000000000000000000000000000000602082015250565b7f4552433732313a20617070726f766520746f2063616c6c657200000000000000600082015250565b7f4552433732313a206f70657261746f7220717565727920666f72206e6f6e657860008201527f697374656e7420746f6b656e0000000000000000000000000000000000000000602082015250565b7f596f7520646f6e2774206f776e2074686973204e465400000000000000000000600082015250565b7f4552433732313a20617070726f76652063616c6c6572206973206e6f74206f7760008201527f6e6572206e6f7220617070726f76656420666f7220616c6c0000000000000000602082015250565b7f4f7267616e697a65722063616e27742062757900000000000000000000000000600082015250565b7f4552433732313a2062616c616e636520717565727920666f7220746865207a6560008201527f726f206164647265737300000000000000000000000000000000000000000000602082015250565b7f4552433732313a206f776e657220717565727920666f72206e6f6e657869737460008201527f656e7420746f6b656e0000000000000000000000000000000000000000000000602082015250565b7f45524337323155524953746f726167653a2055524920736574206f66206e6f6e60008201527f6578697374656e7420746f6b656e000000000000000000000000000000000000602082015250565b7f4552433732313a206d696e7420746f20746865207a65726f2061646472657373600082015250565b7f496e73756666696369656e74207061796d656e74000000000000000000000000600082015250565b7f45524337323155524953746f726167653a2055524920717565727920666f722060008201527f6e6f6e6578697374656e7420746f6b656e000000000000000000000000000000602082015250565b7f4552433732313a20617070726f76656420717565727920666f72206e6f6e657860008201527f697374656e7420746f6b656e0000000000000000000000000000000000000000602082015250565b7f4d61782034207469636b65747320706572207573657200000000000000000000600082015250565b7f4576656e742069732063616e63656c6c65640000000000000000000000000000600082015250565b7f4f776e61626c653a2063616c6c6572206973206e6f7420746865206f776e6572600082015250565b7f4552433732314d657461646174613a2055524920717565727920666f72206e6f60008201527f6e6578697374656e7420746f6b656e0000000000000000000000000000000000602082015250565b7f417265612049447320616e6420707269636573206c656e677468206d69736d6160008201527f7463680000000000000000000000000000000000000000000000000000000000602082015250565b7f4552433732313a20617070726f76616c20746f2063757272656e74206f776e6560008201527f7200000000000000000000000000000000000000000000000000000000000000602082015250565b7f4552433732313a207472616e736665722063616c6c6572206973206e6f74206f60008201527f776e6572206e6f7220617070726f766564000000000000000000000000000000602082015250565b7f536f6c64206f7574000000000000000000000000000000000000000000000000600082015250565b7f4576656e74206861732073746172746564000000000000000000000000000000600082015250565b7f5265656e7472616e637947756172643a207265656e7472616e742063616c6c00600082015250565b6151c78161473c565b81146151d257600080fd5b50565b6151de81614760565b81146151e957600080fd5b50565b6151f58161476c565b811461520057600080fd5b50565b61520c81614798565b811461521757600080fd5b50565b615223816147ca565b811461522e57600080fd5b5056fea2646970667358221220fce52c04f37013905b03c72341b4769757753363f387b9f7a13700935b30d81b64736f6c63430008050033",
  "linkReferences": {},
  "deployedLinkReferences": {}
}