{
  "_format": "hh-sol-artifact-1",
  "contractName": "TicketMarketplace",
  "sourceName": "src/backend/contracts/TicketMarketplace.sol",
  "abi": [
    {
      "inputs": [
        {
          "internalType": "string",
          "name": "_name",
          "type": "string"
        },
        {
          "internalType": "string",
          "name": "_symbol",
          "type": "string"
        },
        {
          "internalType": "uint256",
          "name": "_percentageFee",
          "type": "uint256"
        }
      ],
      "stateMutability": "nonpayable",
      "type": "constructor"
    },
    {
      "anonymous": false,
      "inputs": [
        {
          "indexed": true,
          "internalType": "address",
          "name": "owner",
          "type": "address"
        },
        {
          "indexed": true,
          "internalType": "address",
          "name": "approved",
          "type": "address"
        },
        {
          "indexed": true,
          "internalType": "uint256",
          "name": "tokenId",
          "type": "uint256"
        }
      ],
      "name": "Approval",
      "type": "event"
    },
    {
      "anonymous": false,
      "inputs": [
        {
          "indexed": true,
          "internalType": "address",
          "name": "owner",
          "type": "address"
        },
        {
          "indexed": true,
          "internalType": "address",
          "name": "operator",
          "type": "address"
        },
        {
          "indexed": false,
          "internalType": "bool",
          "name": "approved",
          "type": "bool"
        }
      ],
      "name": "ApprovalForAll",
      "type": "event"
    },
    {
      "anonymous": false,
      "inputs": [
        {
          "indexed": false,
          "internalType": "uint256",
          "name": "ticketId",
          "type": "uint256"
        },
        {
          "indexed": false,
          "internalType": "uint256",
          "name": "price",
          "type": "uint256"
        },
        {
          "indexed": true,
          "internalType": "address",
          "name": "seller",
          "type": "address"
        },
        {
          "indexed": true,
          "internalType": "address",
          "name": "buyer",
          "type": "address"
        }
      ],
      "name": "Bought",
      "type": "event"
    },
    {
      "anonymous": false,
      "inputs": [
        {
          "indexed": true,
          "internalType": "string",
          "name": "name",
          "type": "string"
        },
        {
          "indexed": true,
          "internalType": "address",
          "name": "organizer",
          "type": "address"
        },
        {
          "indexed": true,
          "internalType": "uint256",
          "name": "eventId",
          "type": "uint256"
        }
      ],
      "name": "NewEvent",
      "type": "event"
    },
    {
      "anonymous": false,
      "inputs": [
        {
          "indexed": false,
          "internalType": "uint256",
          "name": "ticketId",
          "type": "uint256"
        },
        {
          "indexed": true,
          "internalType": "uint256",
          "name": "eventId",
          "type": "uint256"
        },
        {
          "indexed": false,
          "internalType": "uint256",
          "name": "price",
          "type": "uint256"
        },
        {
          "indexed": true,
          "internalType": "address",
          "name": "seller",
          "type": "address"
        }
      ],
      "name": "Offered",
      "type": "event"
    },
    {
      "anonymous": false,
      "inputs": [
        {
          "indexed": true,
          "internalType": "address",
          "name": "previousOwner",
          "type": "address"
        },
        {
          "indexed": true,
          "internalType": "address",
          "name": "newOwner",
          "type": "address"
        }
      ],
      "name": "OwnershipTransferred",
      "type": "event"
    },
    {
      "anonymous": false,
      "inputs": [
        {
          "indexed": true,
          "internalType": "address",
          "name": "from",
          "type": "address"
        },
        {
          "indexed": true,
          "internalType": "address",
          "name": "to",
          "type": "address"
        },
        {
          "indexed": true,
          "internalType": "uint256",
          "name": "tokenId",
          "type": "uint256"
        }
      ],
      "name": "Transfer",
      "type": "event"
    },
    {
      "inputs": [
        {
          "internalType": "address",
          "name": "to",
          "type": "address"
        },
        {
          "internalType": "uint256",
          "name": "tokenId",
          "type": "uint256"
        }
      ],
      "name": "approve",
      "outputs": [],
      "stateMutability": "nonpayable",
      "type": "function"
    },
    {
      "inputs": [
        {
          "internalType": "address",
          "name": "owner",
          "type": "address"
        }
      ],
      "name": "balanceOf",
      "outputs": [
        {
          "internalType": "uint256",
          "name": "",
          "type": "uint256"
        }
      ],
      "stateMutability": "view",
      "type": "function"
    },
    {
      "inputs": [
        {
          "internalType": "uint256",
          "name": "_amount",
          "type": "uint256"
        },
        {
          "internalType": "uint256",
          "name": "_eventId",
          "type": "uint256"
        },
        {
          "internalType": "uint256",
          "name": "_areaId",
          "type": "uint256"
        },
        {
          "internalType": "string",
          "name": "_tokenURI",
          "type": "string"
        }
      ],
      "name": "buyTicketFromOrganizer",
      "outputs": [],
      "stateMutability": "payable",
      "type": "function"
    },
    {
      "inputs": [
        {
          "internalType": "string",
          "name": "_name",
          "type": "string"
        },
        {
          "internalType": "uint256",
          "name": "_startTime",
          "type": "uint256"
        },
        {
          "internalType": "string",
          "name": "_location",
          "type": "string"
        },
        {
          "internalType": "address",
          "name": "_organizer",
          "type": "address"
        },
        {
          "internalType": "uint256",
          "name": "_organizerFeePercentage",
          "type": "uint256"
        },
        {
          "internalType": "string[]",
          "name": "_areas",
          "type": "string[]"
        },
        {
          "internalType": "uint256[]",
          "name": "_prices",
          "type": "uint256[]"
        },
        {
          "internalType": "uint256[]",
          "name": "_quotas",
          "type": "uint256[]"
        }
      ],
      "name": "createEvent",
      "outputs": [],
      "stateMutability": "nonpayable",
      "type": "function"
    },
    {
      "inputs": [
        {
          "internalType": "uint256",
          "name": "",
          "type": "uint256"
        }
      ],
      "name": "events",
      "outputs": [
        {
          "internalType": "string",
          "name": "name",
          "type": "string"
        },
        {
          "internalType": "string",
          "name": "location",
          "type": "string"
        },
        {
          "internalType": "bool",
          "name": "isCancelled",
          "type": "bool"
        },
        {
          "internalType": "bool",
          "name": "isCompleted",
          "type": "bool"
        },
        {
          "internalType": "uint256",
          "name": "startTime",
          "type": "uint256"
        },
        {
          "internalType": "address payable",
          "name": "organizer",
          "type": "address"
        },
        {
          "internalType": "uint256",
          "name": "organizerFeePercentage",
          "type": "uint256"
        },
        {
          "internalType": "uint256",
          "name": "totalAreas",
          "type": "uint256"
        }
      ],
      "stateMutability": "view",
      "type": "function"
    },
    {
      "inputs": [
        {
          "internalType": "uint256",
          "name": "tokenId",
          "type": "uint256"
        }
      ],
      "name": "getApproved",
      "outputs": [
        {
          "internalType": "address",
          "name": "",
          "type": "address"
        }
      ],
      "stateMutability": "view",
      "type": "function"
    },
    {
      "inputs": [
        {
          "internalType": "uint256",
          "name": "_eventId",
          "type": "uint256"
        },
        {
          "internalType": "uint256",
          "name": "_areaId",
          "type": "uint256"
        }
      ],
      "name": "getArea",
      "outputs": [
        {
          "components": [
            {
              "internalType": "string",
              "name": "area",
              "type": "string"
            },
            {
              "internalType": "uint256",
              "name": "price",
              "type": "uint256"
            },
            {
              "internalType": "uint256",
              "name": "quota",
              "type": "uint256"
            },
            {
              "internalType": "uint256",
              "name": "soldTickets",
              "type": "uint256"
            }
          ],
          "internalType": "struct EventManagement.Area",
          "name": "",
          "type": "tuple"
        }
      ],
      "stateMutability": "view",
      "type": "function"
    },
    {
      "inputs": [
        {
          "internalType": "address",
          "name": "owner",
          "type": "address"
        },
        {
          "internalType": "address",
          "name": "operator",
          "type": "address"
        }
      ],
      "name": "isApprovedForAll",
      "outputs": [
        {
          "internalType": "bool",
          "name": "",
          "type": "bool"
        }
      ],
      "stateMutability": "view",
      "type": "function"
    },
    {
      "inputs": [],
      "name": "name",
      "outputs": [
        {
          "internalType": "string",
          "name": "",
          "type": "string"
        }
      ],
      "stateMutability": "view",
      "type": "function"
    },
    {
      "inputs": [],
      "name": "nextEventId",
      "outputs": [
        {
          "internalType": "uint256",
          "name": "",
          "type": "uint256"
        }
      ],
      "stateMutability": "view",
      "type": "function"
    },
    {
      "inputs": [],
      "name": "nextTicketId",
      "outputs": [
        {
          "internalType": "uint256",
          "name": "",
          "type": "uint256"
        }
      ],
      "stateMutability": "view",
      "type": "function"
    },
    {
      "inputs": [
        {
          "internalType": "uint256",
          "name": "_ticketId",
          "type": "uint256"
        },
        {
          "internalType": "uint256",
          "name": "_price",
          "type": "uint256"
        }
      ],
      "name": "offerTicket",
      "outputs": [],
      "stateMutability": "nonpayable",
      "type": "function"
    },
    {
      "inputs": [],
      "name": "owner",
      "outputs": [
        {
          "internalType": "address",
          "name": "",
          "type": "address"
        }
      ],
      "stateMutability": "view",
      "type": "function"
    },
    {
      "inputs": [
        {
          "internalType": "uint256",
          "name": "tokenId",
          "type": "uint256"
        }
      ],
      "name": "ownerOf",
      "outputs": [
        {
          "internalType": "address",
          "name": "",
          "type": "address"
        }
      ],
      "stateMutability": "view",
      "type": "function"
    },
    {
      "inputs": [
        {
          "internalType": "contract IERC721",
          "name": "_nft",
          "type": "address"
        },
        {
          "internalType": "uint256",
          "name": "_ticketId",
          "type": "uint256"
        },
        {
          "internalType": "string",
          "name": "_tokenURI",
          "type": "string"
        }
      ],
      "name": "purchaseTicket",
      "outputs": [],
      "stateMutability": "payable",
      "type": "function"
    },
    {
      "inputs": [],
      "name": "renounceOwnership",
      "outputs": [],
      "stateMutability": "nonpayable",
      "type": "function"
    },
    {
      "inputs": [
        {
          "internalType": "address",
          "name": "from",
          "type": "address"
        },
        {
          "internalType": "address",
          "name": "to",
          "type": "address"
        },
        {
          "internalType": "uint256",
          "name": "tokenId",
          "type": "uint256"
        }
      ],
      "name": "safeTransferFrom",
      "outputs": [],
      "stateMutability": "nonpayable",
      "type": "function"
    },
    {
      "inputs": [
        {
          "internalType": "address",
          "name": "from",
          "type": "address"
        },
        {
          "internalType": "address",
          "name": "to",
          "type": "address"
        },
        {
          "internalType": "uint256",
          "name": "tokenId",
          "type": "uint256"
        },
        {
          "internalType": "bytes",
          "name": "_data",
          "type": "bytes"
        }
      ],
      "name": "safeTransferFrom",
      "outputs": [],
      "stateMutability": "nonpayable",
      "type": "function"
    },
    {
      "inputs": [
        {
          "internalType": "address",
          "name": "operator",
          "type": "address"
        },
        {
          "internalType": "bool",
          "name": "approved",
          "type": "bool"
        }
      ],
      "name": "setApprovalForAll",
      "outputs": [],
      "stateMutability": "nonpayable",
      "type": "function"
    },
    {
      "inputs": [
        {
          "internalType": "bytes4",
          "name": "interfaceId",
          "type": "bytes4"
        }
      ],
      "name": "supportsInterface",
      "outputs": [
        {
          "internalType": "bool",
          "name": "",
          "type": "bool"
        }
      ],
      "stateMutability": "view",
      "type": "function"
    },
    {
      "inputs": [],
      "name": "symbol",
      "outputs": [
        {
          "internalType": "string",
          "name": "",
          "type": "string"
        }
      ],
      "stateMutability": "view",
      "type": "function"
    },
    {
      "inputs": [
        {
          "internalType": "uint256",
          "name": "",
          "type": "uint256"
        }
      ],
      "name": "tickets",
      "outputs": [
        {
          "internalType": "uint256",
          "name": "eventId",
          "type": "uint256"
        },
        {
          "internalType": "uint256",
          "name": "areaId",
          "type": "uint256"
        },
        {
          "internalType": "uint256",
          "name": "price",
          "type": "uint256"
        },
        {
          "internalType": "address payable",
          "name": "owner",
          "type": "address"
        },
        {
          "internalType": "uint256",
          "name": "timesSold",
          "type": "uint256"
        },
        {
          "internalType": "bool",
          "name": "offered",
          "type": "bool"
        },
        {
          "internalType": "bool",
          "name": "used",
          "type": "bool"
        }
      ],
      "stateMutability": "view",
      "type": "function"
    },
    {
      "inputs": [
        {
          "internalType": "uint256",
          "name": "tokenId",
          "type": "uint256"
        }
      ],
      "name": "tokenURI",
      "outputs": [
        {
          "internalType": "string",
          "name": "",
          "type": "string"
        }
      ],
      "stateMutability": "view",
      "type": "function"
    },
    {
      "inputs": [
        {
          "internalType": "address",
          "name": "from",
          "type": "address"
        },
        {
          "internalType": "address",
          "name": "to",
          "type": "address"
        },
        {
          "internalType": "uint256",
          "name": "tokenId",
          "type": "uint256"
        }
      ],
      "name": "transferFrom",
      "outputs": [],
      "stateMutability": "nonpayable",
      "type": "function"
    },
    {
      "inputs": [
        {
          "internalType": "address",
          "name": "newOwner",
          "type": "address"
        }
      ],
      "name": "transferOwnership",
      "outputs": [],
      "stateMutability": "nonpayable",
      "type": "function"
    }
  ],
  "bytecode": "0x608060405260016002556001600c553480156200001b57600080fd5b506040516200588138038062005881833981810160405281019062000041919062000403565b82826200006362000057620000af60201b60201c565b620000b760201b60201c565b60016003819055508160049080519060200190620000839291906200017b565b5080600590805190602001906200009c9291906200017b565b50505080600d8190555050505062000502565b600033905090565b60008060009054906101000a900473ffffffffffffffffffffffffffffffffffffffff169050816000806101000a81548173ffffffffffffffffffffffffffffffffffffffff021916908373ffffffffffffffffffffffffffffffffffffffff1602179055508173ffffffffffffffffffffffffffffffffffffffff168173ffffffffffffffffffffffffffffffffffffffff167f8be0079c531659141344cd1fd0a4f28419497f9722a3daafe3b4186f6b6457e060405160405180910390a35050565b8280546200018990620004cc565b90600052602060002090601f016020900481019282620001ad5760008555620001f9565b82601f10620001c857805160ff1916838001178555620001f9565b82800160010185558215620001f9579182015b82811115620001f8578251825591602001919060010190620001db565b5b5090506200020891906200020c565b5090565b5b80821115620002275760008160009055506001016200020d565b5090565b6000604051905090565b600080fd5b600080fd5b600080fd5b600080fd5b6000601f19601f8301169050919050565b7f4e487b7100000000000000000000000000000000000000000000000000000000600052604160045260246000fd5b620002948262000249565b810181811067ffffffffffffffff82111715620002b657620002b56200025a565b5b80604052505050565b6000620002cb6200022b565b9050620002d9828262000289565b919050565b600067ffffffffffffffff821115620002fc57620002fb6200025a565b5b620003078262000249565b9050602081019050919050565b60005b838110156200033457808201518184015260208101905062000317565b8381111562000344576000848401525b50505050565b6000620003616200035b84620002de565b620002bf565b90508281526020810184848401111562000380576200037f62000244565b5b6200038d84828562000314565b509392505050565b600082601f830112620003ad57620003ac6200023f565b5b8151620003bf8482602086016200034a565b91505092915050565b6000819050919050565b620003dd81620003c8565b8114620003e957600080fd5b50565b600081519050620003fd81620003d2565b92915050565b6000806000606084860312156200041f576200041e62000235565b5b600084015167ffffffffffffffff81111562000440576200043f6200023a565b5b6200044e8682870162000395565b935050602084015167ffffffffffffffff8111156200047257620004716200023a565b5b620004808682870162000395565b92505060406200049386828701620003ec565b9150509250925092565b7f4e487b7100000000000000000000000000000000000000000000000000000000600052602260045260246000fd5b60006002820490506001821680620004e557607f821691505b60208210811415620004fc57620004fb6200049d565b5b50919050565b61536f80620005126000396000f3fe6080604052600436106101665760003560e01c806370a08231116100d15780639f9d903a1161008a578063c87b56dd11610064578063c87b56dd1461054c578063d85f0da414610589578063e985e9c5146105a5578063f2fde38b146105e257610166565b80639f9d903a146104cf578063a22cb465146104fa578063b88d4fde1461052357610166565b806370a08231146103bf578063715018a6146103fc57806380b62487146104135780638da5cb5b1461043c57806391501a0c1461046757806395d89b41146104a457610166565b806323b872dd1161012357806323b872dd146102a657806342842e0e146102cf5780634fc87505146102f857806350b44712146103145780636031a52f146103575780636352211e1461038257610166565b806301ffc9a71461016b57806306fdde03146101a8578063081812fc146101d35780630826bef314610210578063095ea7b3146102395780630b79143014610262575b600080fd5b34801561017757600080fd5b50610192600480360381019061018d9190613276565b61060b565b60405161019f91906132be565b60405180910390f35b3480156101b457600080fd5b506101bd6106ed565b6040516101ca9190613372565b60405180910390f35b3480156101df57600080fd5b506101fa60048036038101906101f591906133ca565b61077f565b6040516102079190613438565b60405180910390f35b34801561021c57600080fd5b5061023760048036038101906102329190613453565b610804565b005b34801561024557600080fd5b50610260600480360381019061025b91906134bf565b610a70565b005b34801561026e57600080fd5b50610289600480360381019061028491906133ca565b610b88565b60405161029d98979695949392919061352f565b60405180910390f35b3480156102b257600080fd5b506102cd60048036038101906102c891906135bb565b610d1a565b005b3480156102db57600080fd5b506102f660048036038101906102f191906135bb565b610d7a565b005b610312600480360381019061030d9190613781565b610d9a565b005b34801561032057600080fd5b5061033b600480360381019061033691906133ca565b6111e9565b60405161034e97969594939291906137f0565b60405180910390f35b34801561036357600080fd5b5061036c611265565b604051610379919061385f565b60405180910390f35b34801561038e57600080fd5b506103a960048036038101906103a491906133ca565b61126b565b6040516103b69190613438565b60405180910390f35b3480156103cb57600080fd5b506103e660048036038101906103e1919061387a565b61131d565b6040516103f3919061385f565b60405180910390f35b34801561040857600080fd5b506104116113d5565b005b34801561041f57600080fd5b5061043a60048036038101906104359190613a50565b61145d565b005b34801561044857600080fd5b506104516117c6565b60405161045e9190613438565b60405180910390f35b34801561047357600080fd5b5061048e60048036038101906104899190613453565b6117ef565b60405161049b9190613c4e565b60405180910390f35b3480156104b057600080fd5b506104b96118e1565b6040516104c69190613372565b60405180910390f35b3480156104db57600080fd5b506104e4611973565b6040516104f1919061385f565b60405180910390f35b34801561050657600080fd5b50610521600480360381019061051c9190613c9c565b611979565b005b34801561052f57600080fd5b5061054a60048036038101906105459190613d7d565b61198f565b005b34801561055857600080fd5b50610573600480360381019061056e91906133ca565b6119f1565b6040516105809190613372565b60405180910390f35b6105a3600480360381019061059e9190613e00565b611b43565b005b3480156105b157600080fd5b506105cc60048036038101906105c79190613e83565b61200e565b6040516105d991906132be565b60405180910390f35b3480156105ee57600080fd5b506106096004803603810190610604919061387a565b6120a2565b005b60007f80ac58cd000000000000000000000000000000000000000000000000000000007bffffffffffffffffffffffffffffffffffffffffffffffffffffffff1916827bffffffffffffffffffffffffffffffffffffffffffffffffffffffff191614806106d657507f5b5e139f000000000000000000000000000000000000000000000000000000007bffffffffffffffffffffffffffffffffffffffffffffffffffffffff1916827bffffffffffffffffffffffffffffffffffffffffffffffffffffffff1916145b806106e657506106e58261219a565b5b9050919050565b6060600480546106fc90613ef2565b80601f016020809104026020016040519081016040528092919081815260200182805461072890613ef2565b80156107755780601f1061074a57610100808354040283529160200191610775565b820191906000526020600020905b81548152906001019060200180831161075857829003601f168201915b5050505050905090565b600061078a82612204565b6107c9576040517f08c379a00000000000000000000000000000000000000000000000000000000081526004016107c090613f96565b60405180910390fd5b6008600083815260200190815260200160002060009054906101000a900473ffffffffffffffffffffffffffffffffffffffff169050919050565b6002600354141561084a576040517f08c379a000000000000000000000000000000000000000000000000000000000815260040161084190614002565b60405180910390fd5b60026003819055506000821180156108645750600c548211155b61086d57600080fd5b6000600b600084815260200190815260200160002090503373ffffffffffffffffffffffffffffffffffffffff166108a48461126b565b73ffffffffffffffffffffffffffffffffffffffff16146108fa576040517f08c379a00000000000000000000000000000000000000000000000000000000081526004016108f19061406e565b60405180910390fd5b3373ffffffffffffffffffffffffffffffffffffffff168160030160009054906101000a900473ffffffffffffffffffffffffffffffffffffffff1673ffffffffffffffffffffffffffffffffffffffff161461098c576040517f08c379a000000000000000000000000000000000000000000000000000000000815260040161098390614100565b60405180910390fd5b8060050160019054906101000a900460ff16156109de576040517f08c379a00000000000000000000000000000000000000000000000000000000081526004016109d59061416c565b60405180910390fd5b6109e83084610a70565b81816002018190555060018160050160006101000a81548160ff0219169083151502179055503373ffffffffffffffffffffffffffffffffffffffff1681600001547fd846d2cfaaa23a2723be747ef18b5d16a1484d901d581da4843cc27638c862ad8585604051610a5b92919061418c565b60405180910390a35060016003819055505050565b6000610a7b8261126b565b90508073ffffffffffffffffffffffffffffffffffffffff168373ffffffffffffffffffffffffffffffffffffffff161415610aec576040517f08c379a0000000000000000000000000000000000000000000000000000000008152600401610ae390614227565b60405180910390fd5b8073ffffffffffffffffffffffffffffffffffffffff16610b0b612270565b73ffffffffffffffffffffffffffffffffffffffff161480610b3a5750610b3981610b34612270565b61200e565b5b610b79576040517f08c379a0000000000000000000000000000000000000000000000000000000008152600401610b70906142b9565b60405180910390fd5b610b838383612278565b505050565b6001602052806000526040600020600091509050806000018054610bab90613ef2565b80601f0160208091040260200160405190810160405280929190818152602001828054610bd790613ef2565b8015610c245780601f10610bf957610100808354040283529160200191610c24565b820191906000526020600020905b815481529060010190602001808311610c0757829003601f168201915b505050505090806001018054610c3990613ef2565b80601f0160208091040260200160405190810160405280929190818152602001828054610c6590613ef2565b8015610cb25780601f10610c8757610100808354040283529160200191610cb2565b820191906000526020600020905b815481529060010190602001808311610c9557829003601f168201915b5050505050908060020160009054906101000a900460ff16908060020160019054906101000a900460ff16908060030154908060040160009054906101000a900473ffffffffffffffffffffffffffffffffffffffff16908060050154908060060154905088565b610d2b610d25612270565b82612331565b610d6a576040517f08c379a0000000000000000000000000000000000000000000000000000000008152600401610d619061434b565b60405180910390fd5b610d7583838361240f565b505050565b610d958383836040518060200160405280600081525061198f565b505050565b60026003541415610de0576040517f08c379a0000000000000000000000000000000000000000000000000000000008152600401610dd790614002565b60405180910390fd5b6002600381905550600082118015610dfa5750600c548211155b610e0357600080fd5b6000600b600084815260200190815260200160002090506000816004015411610e2b57600080fd5b8060020154341015610e3c57600080fd5b8060050160019054906101000a900460ff1615610e8e576040517f08c379a0000000000000000000000000000000000000000000000000000000008152600401610e859061416c565b60405180910390fd5b6000600160008360000154815260200190815260200160002090506000610eb88360020154612676565b90506000610ece84600201548460050154612699565b90506000846002015434610ee2919061439a565b905060008560030160009054906101000a900473ffffffffffffffffffffffffffffffffffffffff1690508073ffffffffffffffffffffffffffffffffffffffff166108fc84868960020154610f38919061439a565b610f42919061439a565b9081150290604051600060405180830381858888f19350505050158015610f6d573d6000803e3d6000fd5b508460040160009054906101000a900473ffffffffffffffffffffffffffffffffffffffff1673ffffffffffffffffffffffffffffffffffffffff166108fc849081150290604051600060405180830381858888f19350505050158015610fd8573d6000803e3d6000fd5b50610fe16117c6565b73ffffffffffffffffffffffffffffffffffffffff166108fc859081150290604051600060405180830381858888f19350505050158015611026573d6000803e3d6000fd5b506000821115611078573373ffffffffffffffffffffffffffffffffffffffff166108fc839081150290604051600060405180830381858888f19350505050158015611076573d6000803e3d6000fd5b505b61108288886126bb565b8873ffffffffffffffffffffffffffffffffffffffff166323b872dd82338b6040518463ffffffff1660e01b81526004016110bf9392919061442d565b600060405180830381600087803b1580156110d957600080fd5b505af11580156110ed573d6000803e3d6000fd5b50505050338660030160006101000a81548173ffffffffffffffffffffffffffffffffffffffff021916908373ffffffffffffffffffffffffffffffffffffffff16021790555060008660050160006101000a81548160ff02191690831515021790555085600401600081548092919061116690614464565b91905055503373ffffffffffffffffffffffffffffffffffffffff168173ffffffffffffffffffffffffffffffffffffffff167f4ebd6ef39c1235e69ba7dedf24ad43bdeb57deb289d98473668070d6ca9b685e8a89600201546040516111ce92919061418c565b60405180910390a35050505050506001600381905550505050565b600b6020528060005260406000206000915090508060000154908060010154908060020154908060030160009054906101000a900473ffffffffffffffffffffffffffffffffffffffff16908060040154908060050160009054906101000a900460ff16908060050160019054906101000a900460ff16905087565b600c5481565b6000806006600084815260200190815260200160002060009054906101000a900473ffffffffffffffffffffffffffffffffffffffff169050600073ffffffffffffffffffffffffffffffffffffffff168173ffffffffffffffffffffffffffffffffffffffff161415611314576040517f08c379a000000000000000000000000000000000000000000000000000000000815260040161130b9061451f565b60405180910390fd5b80915050919050565b60008073ffffffffffffffffffffffffffffffffffffffff168273ffffffffffffffffffffffffffffffffffffffff16141561138e576040517f08c379a0000000000000000000000000000000000000000000000000000000008152600401611385906145b1565b60405180910390fd5b600760008373ffffffffffffffffffffffffffffffffffffffff1673ffffffffffffffffffffffffffffffffffffffff168152602001908152602001600020549050919050565b6113dd612270565b73ffffffffffffffffffffffffffffffffffffffff166113fb6117c6565b73ffffffffffffffffffffffffffffffffffffffff1614611451576040517f08c379a00000000000000000000000000000000000000000000000000000000081526004016114489061461d565b60405180910390fd5b61145b600061272f565b565b611465612270565b73ffffffffffffffffffffffffffffffffffffffff166114836117c6565b73ffffffffffffffffffffffffffffffffffffffff16146114d9576040517f08c379a00000000000000000000000000000000000000000000000000000000081526004016114d09061461d565b60405180910390fd5b815183511461151d576040517f08c379a0000000000000000000000000000000000000000000000000000000008152600401611514906146af565b60405180910390fd5b8051835114611561576040517f08c379a00000000000000000000000000000000000000000000000000000000081526004016115589061471b565b60405180910390fd5b606484106115a4576040517f08c379a000000000000000000000000000000000000000000000000000000000815260040161159b90614787565b60405180910390fd5b60006001600060025481526020019081526020016000209050888160000190805190602001906115d592919061313f565b50868160010190805190602001906115ee92919061313f565b50878160030181905550858160040160006101000a81548173ffffffffffffffffffffffffffffffffffffffff021916908373ffffffffffffffffffffffffffffffffffffffff1602179055508481600501819055508351816006018190555060008160020160006101000a81548160ff02191690831515021790555060008160020160016101000a81548160ff02191690831515021790555060005b84518110156117465760008260070160006001846116a991906147a7565b815260200190815260200160002090508582815181106116cc576116cb6147fd565b5b60200260200101518160000190805190602001906116eb92919061313f565b508482815181106116ff576116fe6147fd565b5b60200260200101518160010181905550838281518110611722576117216147fd565b5b6020026020010151816002018190555050808061173e90614464565b91505061168b565b506002548673ffffffffffffffffffffffffffffffffffffffff168a60405161176f9190614868565b60405180910390207f2bc021fadd1aa0ed2df3d4c8a8c8e7b1f4eae1811deb4a2ba4ec8fc4ef0f12a060405160405180910390a4600260008154809291906117b690614464565b9190505550505050505050505050565b60008060009054906101000a900473ffffffffffffffffffffffffffffffffffffffff16905090565b6117f76131c5565b60016000848152602001908152602001600020600701600083815260200190815260200160002060405180608001604052908160008201805461183990613ef2565b80601f016020809104026020016040519081016040528092919081815260200182805461186590613ef2565b80156118b25780601f10611887576101008083540402835291602001916118b2565b820191906000526020600020905b81548152906001019060200180831161189557829003601f168201915b505050505081526020016001820154815260200160028201548152602001600382015481525050905092915050565b6060600580546118f090613ef2565b80601f016020809104026020016040519081016040528092919081815260200182805461191c90613ef2565b80156119695780601f1061193e57610100808354040283529160200191611969565b820191906000526020600020905b81548152906001019060200180831161194c57829003601f168201915b5050505050905090565b60025481565b61198b611984612270565b83836127f3565b5050565b6119a061199a612270565b83612331565b6119df576040517f08c379a00000000000000000000000000000000000000000000000000000000081526004016119d69061434b565b60405180910390fd5b6119eb84848484612960565b50505050565b60606119fc82612204565b611a3b576040517f08c379a0000000000000000000000000000000000000000000000000000000008152600401611a32906148f1565b60405180910390fd5b6000600a60008481526020019081526020016000208054611a5b90613ef2565b80601f0160208091040260200160405190810160405280929190818152602001828054611a8790613ef2565b8015611ad45780601f10611aa957610100808354040283529160200191611ad4565b820191906000526020600020905b815481529060010190602001808311611ab757829003601f168201915b505050505090506000611ae56129bc565b9050600081511415611afb578192505050611b3e565b600082511115611b30578082604051602001611b18929190614911565b60405160208183030381529060405292505050611b3e565b611b39846129d3565b925050505b919050565b60026003541415611b89576040517f08c379a0000000000000000000000000000000000000000000000000000000008152600401611b8090614002565b60405180910390fd5b60026003819055506004841115611bd5576040517f08c379a0000000000000000000000000000000000000000000000000000000008152600401611bcc90614981565b60405180910390fd5b60006001600085815260200190815260200160002090508060040160009054906101000a900473ffffffffffffffffffffffffffffffffffffffff1673ffffffffffffffffffffffffffffffffffffffff163373ffffffffffffffffffffffffffffffffffffffff161415611c7f576040517f08c379a0000000000000000000000000000000000000000000000000000000008152600401611c76906149ed565b60405180910390fd5b42816003015411611cc5576040517f08c379a0000000000000000000000000000000000000000000000000000000008152600401611cbc90614a59565b60405180910390fd5b8060020160009054906101000a900460ff1615611d17576040517f08c379a0000000000000000000000000000000000000000000000000000000008152600401611d0e90614ac5565b60405180910390fd5b8060020160019054906101000a900460ff1615611d69576040517f08c379a0000000000000000000000000000000000000000000000000000000008152600401611d6090614b31565b60405180910390fd5b600081600701600085815260200190815260200160002060010154905060008682611d949190614b51565b905080341015611dd9576040517f08c379a0000000000000000000000000000000000000000000000000000000008152600401611dd090614bf7565b60405180910390fd5b826007016000868152602001908152602001600020600301548360070160008781526020019081526020016000206002015411611e4b576040517f08c379a0000000000000000000000000000000000000000000000000000000008152600401611e4290614c63565b60405180910390fd5b60005b87811015611ec857611e87878785888860040160009054906101000a900473ffffffffffffffffffffffffffffffffffffffff16612a7a565b8360070160008781526020019081526020016000206003016000815480929190611eb090614464565b91905055508080611ec090614464565b915050611e4e565b506000611ed482612676565b905060008234611ee4919061439a565b90508460040160009054906101000a900473ffffffffffffffffffffffffffffffffffffffff1673ffffffffffffffffffffffffffffffffffffffff166108fc8385611f30919061439a565b9081150290604051600060405180830381858888f19350505050158015611f5b573d6000803e3d6000fd5b50611f646117c6565b73ffffffffffffffffffffffffffffffffffffffff166108fc839081150290604051600060405180830381858888f19350505050158015611fa9573d6000803e3d6000fd5b506000811115611ffb573373ffffffffffffffffffffffffffffffffffffffff166108fc829081150290604051600060405180830381858888f19350505050158015611ff9573d6000803e3d6000fd5b505b5050505050600160038190555050505050565b6000600960008473ffffffffffffffffffffffffffffffffffffffff1673ffffffffffffffffffffffffffffffffffffffff16815260200190815260200160002060008373ffffffffffffffffffffffffffffffffffffffff1673ffffffffffffffffffffffffffffffffffffffff16815260200190815260200160002060009054906101000a900460ff16905092915050565b6120aa612270565b73ffffffffffffffffffffffffffffffffffffffff166120c86117c6565b73ffffffffffffffffffffffffffffffffffffffff161461211e576040517f08c379a00000000000000000000000000000000000000000000000000000000081526004016121159061461d565b60405180910390fd5b600073ffffffffffffffffffffffffffffffffffffffff168173ffffffffffffffffffffffffffffffffffffffff16141561218e576040517f08c379a000000000000000000000000000000000000000000000000000000000815260040161218590614cf5565b60405180910390fd5b6121978161272f565b50565b60007f01ffc9a7000000000000000000000000000000000000000000000000000000007bffffffffffffffffffffffffffffffffffffffffffffffffffffffff1916827bffffffffffffffffffffffffffffffffffffffffffffffffffffffff1916149050919050565b60008073ffffffffffffffffffffffffffffffffffffffff166006600084815260200190815260200160002060009054906101000a900473ffffffffffffffffffffffffffffffffffffffff1673ffffffffffffffffffffffffffffffffffffffff1614159050919050565b600033905090565b816008600083815260200190815260200160002060006101000a81548173ffffffffffffffffffffffffffffffffffffffff021916908373ffffffffffffffffffffffffffffffffffffffff160217905550808273ffffffffffffffffffffffffffffffffffffffff166122eb8361126b565b73ffffffffffffffffffffffffffffffffffffffff167f8c5be1e5ebec7d5bd14f71427d1e84f3dd0314c0f7b2291e5b200ac8c7c3b92560405160405180910390a45050565b600061233c82612204565b61237b576040517f08c379a000000000000000000000000000000000000000000000000000000000815260040161237290614d87565b60405180910390fd5b60006123868361126b565b90508073ffffffffffffffffffffffffffffffffffffffff168473ffffffffffffffffffffffffffffffffffffffff1614806123f557508373ffffffffffffffffffffffffffffffffffffffff166123dd8461077f565b73ffffffffffffffffffffffffffffffffffffffff16145b806124065750612405818561200e565b5b91505092915050565b8273ffffffffffffffffffffffffffffffffffffffff1661242f8261126b565b73ffffffffffffffffffffffffffffffffffffffff1614612485576040517f08c379a000000000000000000000000000000000000000000000000000000000815260040161247c90614e19565b60405180910390fd5b600073ffffffffffffffffffffffffffffffffffffffff168273ffffffffffffffffffffffffffffffffffffffff1614156124f5576040517f08c379a00000000000000000000000000000000000000000000000000000000081526004016124ec90614eab565b60405180910390fd5b612500838383612bd6565b61250b600082612278565b6001600760008573ffffffffffffffffffffffffffffffffffffffff1673ffffffffffffffffffffffffffffffffffffffff168152602001908152602001600020600082825461255b919061439a565b925050819055506001600760008473ffffffffffffffffffffffffffffffffffffffff1673ffffffffffffffffffffffffffffffffffffffff16815260200190815260200160002060008282546125b291906147a7565b92505081905550816006600083815260200190815260200160002060006101000a81548173ffffffffffffffffffffffffffffffffffffffff021916908373ffffffffffffffffffffffffffffffffffffffff160217905550808273ffffffffffffffffffffffffffffffffffffffff168473ffffffffffffffffffffffffffffffffffffffff167fddf252ad1be2c89b69c2b068fc378daa952ba7f163c4a11628f55a4df523b3ef60405160405180910390a4612671838383612bdb565b505050565b60006064600d54836126889190614b51565b6126929190614efa565b9050919050565b6000606482846126a99190614b51565b6126b39190614efa565b905092915050565b6126c482612204565b612703576040517f08c379a00000000000000000000000000000000000000000000000000000000081526004016126fa90614f9d565b60405180910390fd5b80600a6000848152602001908152602001600020908051906020019061272a92919061313f565b505050565b60008060009054906101000a900473ffffffffffffffffffffffffffffffffffffffff169050816000806101000a81548173ffffffffffffffffffffffffffffffffffffffff021916908373ffffffffffffffffffffffffffffffffffffffff1602179055508173ffffffffffffffffffffffffffffffffffffffff168173ffffffffffffffffffffffffffffffffffffffff167f8be0079c531659141344cd1fd0a4f28419497f9722a3daafe3b4186f6b6457e060405160405180910390a35050565b8173ffffffffffffffffffffffffffffffffffffffff168373ffffffffffffffffffffffffffffffffffffffff161415612862576040517f08c379a000000000000000000000000000000000000000000000000000000000815260040161285990615009565b60405180910390fd5b80600960008573ffffffffffffffffffffffffffffffffffffffff1673ffffffffffffffffffffffffffffffffffffffff16815260200190815260200160002060008473ffffffffffffffffffffffffffffffffffffffff1673ffffffffffffffffffffffffffffffffffffffff16815260200190815260200160002060006101000a81548160ff0219169083151502179055508173ffffffffffffffffffffffffffffffffffffffff168373ffffffffffffffffffffffffffffffffffffffff167f17307eab39ab6107e8899845ad3d59bd9653f200f220920489ca2b5937696c318360405161295391906132be565b60405180910390a3505050565b61296b84848461240f565b61297784848484612be0565b6129b6576040517f08c379a00000000000000000000000000000000000000000000000000000000081526004016129ad9061509b565b60405180910390fd5b50505050565b606060405180602001604052806000815250905090565b60606129de82612204565b612a1d576040517f08c379a0000000000000000000000000000000000000000000000000000000008152600401612a149061512d565b60405180910390fd5b6000612a276129bc565b90506000815111612a475760405180602001604052806000815250612a72565b80612a5184612d68565b604051602001612a62929190614911565b6040516020818303038152906040525b915050919050565b612a8633600c54612ec9565b612a92600c54836126bb565b6000600b6000600c5481526020019081526020016000209050858160000181905550848160010181905550838160020181905550338160030160006101000a81548173ffffffffffffffffffffffffffffffffffffffff021916908373ffffffffffffffffffffffffffffffffffffffff1602179055506001816004018190555060008160050160016101000a81548160ff02191690831515021790555060008160050160006101000a81548160ff0219169083151502179055503373ffffffffffffffffffffffffffffffffffffffff168273ffffffffffffffffffffffffffffffffffffffff167f4ebd6ef39c1235e69ba7dedf24ad43bdeb57deb289d98473668070d6ca9b685e600c5487604051612bae92919061418c565b60405180910390a3600c6000815480929190612bc990614464565b9190505550505050505050565b505050565b505050565b6000612c018473ffffffffffffffffffffffffffffffffffffffff16612ee7565b15612d5b578373ffffffffffffffffffffffffffffffffffffffff1663150b7a02612c2a612270565b8786866040518563ffffffff1660e01b8152600401612c4c94939291906151a2565b6020604051808303816000875af1925050508015612c8857506040513d601f19601f82011682018060405250810190612c859190615203565b60015b612d0b573d8060008114612cb8576040519150601f19603f3d011682016040523d82523d6000602084013e612cbd565b606091505b50600081511415612d03576040517f08c379a0000000000000000000000000000000000000000000000000000000008152600401612cfa9061509b565b60405180910390fd5b805181602001fd5b63150b7a0260e01b7bffffffffffffffffffffffffffffffffffffffffffffffffffffffff1916817bffffffffffffffffffffffffffffffffffffffffffffffffffffffff191614915050612d60565b600190505b949350505050565b60606000821415612db0576040518060400160405280600181526020017f30000000000000000000000000000000000000000000000000000000000000008152509050612ec4565b600082905060005b60008214612de2578080612dcb90614464565b915050600a82612ddb9190614efa565b9150612db8565b60008167ffffffffffffffff811115612dfe57612dfd613656565b5b6040519080825280601f01601f191660200182016040528015612e305781602001600182028036833780820191505090505b5090505b60008514612ebd57600182612e49919061439a565b9150600a85612e589190615230565b6030612e6491906147a7565b60f81b818381518110612e7a57612e796147fd565b5b60200101907effffffffffffffffffffffffffffffffffffffffffffffffffffffffffffff1916908160001a905350600a85612eb69190614efa565b9450612e34565b8093505050505b919050565b612ee3828260405180602001604052806000815250612f0a565b5050565b6000808273ffffffffffffffffffffffffffffffffffffffff163b119050919050565b612f148383612f65565b612f216000848484612be0565b612f60576040517f08c379a0000000000000000000000000000000000000000000000000000000008152600401612f579061509b565b60405180910390fd5b505050565b600073ffffffffffffffffffffffffffffffffffffffff168273ffffffffffffffffffffffffffffffffffffffff161415612fd5576040517f08c379a0000000000000000000000000000000000000000000000000000000008152600401612fcc906152ad565b60405180910390fd5b612fde81612204565b1561301e576040517f08c379a000000000000000000000000000000000000000000000000000000000815260040161301590615319565b60405180910390fd5b61302a60008383612bd6565b6001600760008473ffffffffffffffffffffffffffffffffffffffff1673ffffffffffffffffffffffffffffffffffffffff168152602001908152602001600020600082825461307a91906147a7565b92505081905550816006600083815260200190815260200160002060006101000a81548173ffffffffffffffffffffffffffffffffffffffff021916908373ffffffffffffffffffffffffffffffffffffffff160217905550808273ffffffffffffffffffffffffffffffffffffffff16600073ffffffffffffffffffffffffffffffffffffffff167fddf252ad1be2c89b69c2b068fc378daa952ba7f163c4a11628f55a4df523b3ef60405160405180910390a461313b60008383612bdb565b5050565b82805461314b90613ef2565b90600052602060002090601f01602090048101928261316d57600085556131b4565b82601f1061318657805160ff19168380011785556131b4565b828001600101855582156131b4579182015b828111156131b3578251825591602001919060010190613198565b5b5090506131c191906131ed565b5090565b6040518060800160405280606081526020016000815260200160008152602001600081525090565b5b808211156132065760008160009055506001016131ee565b5090565b6000604051905090565b600080fd5b600080fd5b60007fffffffff0000000000000000000000000000000000000000000000000000000082169050919050565b6132538161321e565b811461325e57600080fd5b50565b6000813590506132708161324a565b92915050565b60006020828403121561328c5761328b613214565b5b600061329a84828501613261565b91505092915050565b60008115159050919050565b6132b8816132a3565b82525050565b60006020820190506132d360008301846132af565b92915050565b600081519050919050565b600082825260208201905092915050565b60005b838110156133135780820151818401526020810190506132f8565b83811115613322576000848401525b50505050565b6000601f19601f8301169050919050565b6000613344826132d9565b61334e81856132e4565b935061335e8185602086016132f5565b61336781613328565b840191505092915050565b6000602082019050818103600083015261338c8184613339565b905092915050565b6000819050919050565b6133a781613394565b81146133b257600080fd5b50565b6000813590506133c48161339e565b92915050565b6000602082840312156133e0576133df613214565b5b60006133ee848285016133b5565b91505092915050565b600073ffffffffffffffffffffffffffffffffffffffff82169050919050565b6000613422826133f7565b9050919050565b61343281613417565b82525050565b600060208201905061344d6000830184613429565b92915050565b6000806040838503121561346a57613469613214565b5b6000613478858286016133b5565b9250506020613489858286016133b5565b9150509250929050565b61349c81613417565b81146134a757600080fd5b50565b6000813590506134b981613493565b92915050565b600080604083850312156134d6576134d5613214565b5b60006134e4858286016134aa565b92505060206134f5858286016133b5565b9150509250929050565b61350881613394565b82525050565b6000613519826133f7565b9050919050565b6135298161350e565b82525050565b600061010082019050818103600083015261354a818b613339565b9050818103602083015261355e818a613339565b905061356d60408301896132af565b61357a60608301886132af565b61358760808301876134ff565b61359460a0830186613520565b6135a160c08301856134ff565b6135ae60e08301846134ff565b9998505050505050505050565b6000806000606084860312156135d4576135d3613214565b5b60006135e2868287016134aa565b93505060206135f3868287016134aa565b9250506040613604868287016133b5565b9150509250925092565b600061361982613417565b9050919050565b6136298161360e565b811461363457600080fd5b50565b60008135905061364681613620565b92915050565b600080fd5b600080fd5b7f4e487b7100000000000000000000000000000000000000000000000000000000600052604160045260246000fd5b61368e82613328565b810181811067ffffffffffffffff821117156136ad576136ac613656565b5b80604052505050565b60006136c061320a565b90506136cc8282613685565b919050565b600067ffffffffffffffff8211156136ec576136eb613656565b5b6136f582613328565b9050602081019050919050565b82818337600083830152505050565b600061372461371f846136d1565b6136b6565b9050828152602081018484840111156137405761373f613651565b5b61374b848285613702565b509392505050565b600082601f8301126137685761376761364c565b5b8135613778848260208601613711565b91505092915050565b60008060006060848603121561379a57613799613214565b5b60006137a886828701613637565b93505060206137b9868287016133b5565b925050604084013567ffffffffffffffff8111156137da576137d9613219565b5b6137e686828701613753565b9150509250925092565b600060e082019050613805600083018a6134ff565b61381260208301896134ff565b61381f60408301886134ff565b61382c6060830187613520565b61383960808301866134ff565b61384660a08301856132af565b61385360c08301846132af565b98975050505050505050565b600060208201905061387460008301846134ff565b92915050565b6000602082840312156138905761388f613214565b5b600061389e848285016134aa565b91505092915050565b600067ffffffffffffffff8211156138c2576138c1613656565b5b602082029050602081019050919050565b600080fd5b60006138eb6138e6846138a7565b6136b6565b9050808382526020820190506020840283018581111561390e5761390d6138d3565b5b835b8181101561395557803567ffffffffffffffff8111156139335761393261364c565b5b8086016139408982613753565b85526020850194505050602081019050613910565b5050509392505050565b600082601f8301126139745761397361364c565b5b81356139848482602086016138d8565b91505092915050565b600067ffffffffffffffff8211156139a8576139a7613656565b5b602082029050602081019050919050565b60006139cc6139c78461398d565b6136b6565b905080838252602082019050602084028301858111156139ef576139ee6138d3565b5b835b81811015613a185780613a0488826133b5565b8452602084019350506020810190506139f1565b5050509392505050565b600082601f830112613a3757613a3661364c565b5b8135613a478482602086016139b9565b91505092915050565b600080600080600080600080610100898b031215613a7157613a70613214565b5b600089013567ffffffffffffffff811115613a8f57613a8e613219565b5b613a9b8b828c01613753565b9850506020613aac8b828c016133b5565b975050604089013567ffffffffffffffff811115613acd57613acc613219565b5b613ad98b828c01613753565b9650506060613aea8b828c016134aa565b9550506080613afb8b828c016133b5565b94505060a089013567ffffffffffffffff811115613b1c57613b1b613219565b5b613b288b828c0161395f565b93505060c089013567ffffffffffffffff811115613b4957613b48613219565b5b613b558b828c01613a22565b92505060e089013567ffffffffffffffff811115613b7657613b75613219565b5b613b828b828c01613a22565b9150509295985092959890939650565b600082825260208201905092915050565b6000613bae826132d9565b613bb88185613b92565b9350613bc88185602086016132f5565b613bd181613328565b840191505092915050565b613be581613394565b82525050565b60006080830160008301518482036000860152613c088282613ba3565b9150506020830151613c1d6020860182613bdc565b506040830151613c306040860182613bdc565b506060830151613c436060860182613bdc565b508091505092915050565b60006020820190508181036000830152613c688184613beb565b905092915050565b613c79816132a3565b8114613c8457600080fd5b50565b600081359050613c9681613c70565b92915050565b60008060408385031215613cb357613cb2613214565b5b6000613cc1858286016134aa565b9250506020613cd285828601613c87565b9150509250929050565b600067ffffffffffffffff821115613cf757613cf6613656565b5b613d0082613328565b9050602081019050919050565b6000613d20613d1b84613cdc565b6136b6565b905082815260208101848484011115613d3c57613d3b613651565b5b613d47848285613702565b509392505050565b600082601f830112613d6457613d6361364c565b5b8135613d74848260208601613d0d565b91505092915050565b60008060008060808587031215613d9757613d96613214565b5b6000613da5878288016134aa565b9450506020613db6878288016134aa565b9350506040613dc7878288016133b5565b925050606085013567ffffffffffffffff811115613de857613de7613219565b5b613df487828801613d4f565b91505092959194509250565b60008060008060808587031215613e1a57613e19613214565b5b6000613e28878288016133b5565b9450506020613e39878288016133b5565b9350506040613e4a878288016133b5565b925050606085013567ffffffffffffffff811115613e6b57613e6a613219565b5b613e7787828801613753565b91505092959194509250565b60008060408385031215613e9a57613e99613214565b5b6000613ea8858286016134aa565b9250506020613eb9858286016134aa565b9150509250929050565b7f4e487b7100000000000000000000000000000000000000000000000000000000600052602260045260246000fd5b60006002820490506001821680613f0a57607f821691505b60208210811415613f1e57613f1d613ec3565b5b50919050565b7f4552433732313a20617070726f76656420717565727920666f72206e6f6e657860008201527f697374656e7420746f6b656e0000000000000000000000000000000000000000602082015250565b6000613f80602c836132e4565b9150613f8b82613f24565b604082019050919050565b60006020820190508181036000830152613faf81613f73565b9050919050565b7f5265656e7472616e637947756172643a207265656e7472616e742063616c6c00600082015250565b6000613fec601f836132e4565b9150613ff782613fb6565b602082019050919050565b6000602082019050818103600083015261401b81613fdf565b9050919050565b7f596f7520646f6e2774206f776e2074686973204e465400000000000000000000600082015250565b60006140586016836132e4565b915061406382614022565b602082019050919050565b600060208201905081810360008301526140878161404b565b9050919050565b7f596f7520646f6e742068617665207065726d697373696f6e20746f2073656c6c60008201527f2074686973207469636b65740000000000000000000000000000000000000000602082015250565b60006140ea602c836132e4565b91506140f58261408e565b604082019050919050565b60006020820190508181036000830152614119816140dd565b9050919050565b7f5469636b65742069732075736564000000000000000000000000000000000000600082015250565b6000614156600e836132e4565b915061416182614120565b602082019050919050565b6000602082019050818103600083015261418581614149565b9050919050565b60006040820190506141a160008301856134ff565b6141ae60208301846134ff565b9392505050565b7f4552433732313a20617070726f76616c20746f2063757272656e74206f776e6560008201527f7200000000000000000000000000000000000000000000000000000000000000602082015250565b60006142116021836132e4565b915061421c826141b5565b604082019050919050565b6000602082019050818103600083015261424081614204565b9050919050565b7f4552433732313a20617070726f76652063616c6c6572206973206e6f74206f7760008201527f6e6572206e6f7220617070726f76656420666f7220616c6c0000000000000000602082015250565b60006142a36038836132e4565b91506142ae82614247565b604082019050919050565b600060208201905081810360008301526142d281614296565b9050919050565b7f4552433732313a207472616e736665722063616c6c6572206973206e6f74206f60008201527f776e6572206e6f7220617070726f766564000000000000000000000000000000602082015250565b60006143356031836132e4565b9150614340826142d9565b604082019050919050565b6000602082019050818103600083015261436481614328565b9050919050565b7f4e487b7100000000000000000000000000000000000000000000000000000000600052601160045260246000fd5b60006143a582613394565b91506143b083613394565b9250828210156143c3576143c261436b565b5b828203905092915050565b6000819050919050565b60006143f36143ee6143e9846133f7565b6143ce565b6133f7565b9050919050565b6000614405826143d8565b9050919050565b6000614417826143fa565b9050919050565b6144278161440c565b82525050565b6000606082019050614442600083018661441e565b61444f6020830185613429565b61445c60408301846134ff565b949350505050565b600061446f82613394565b91507fffffffffffffffffffffffffffffffffffffffffffffffffffffffffffffffff8214156144a2576144a161436b565b5b600182019050919050565b7f4552433732313a206f776e657220717565727920666f72206e6f6e657869737460008201527f656e7420746f6b656e0000000000000000000000000000000000000000000000602082015250565b60006145096029836132e4565b9150614514826144ad565b604082019050919050565b60006020820190508181036000830152614538816144fc565b9050919050565b7f4552433732313a2062616c616e636520717565727920666f7220746865207a6560008201527f726f206164647265737300000000000000000000000000000000000000000000602082015250565b600061459b602a836132e4565b91506145a68261453f565b604082019050919050565b600060208201905081810360008301526145ca8161458e565b9050919050565b7f4f776e61626c653a2063616c6c6572206973206e6f7420746865206f776e6572600082015250565b60006146076020836132e4565b9150614612826145d1565b602082019050919050565b60006020820190508181036000830152614636816145fa565b9050919050565b7f417265612049447320616e6420707269636573206c656e677468206d69736d6160008201527f7463680000000000000000000000000000000000000000000000000000000000602082015250565b60006146996023836132e4565b91506146a48261463d565b604082019050919050565b600060208201905081810360008301526146c88161468c565b9050919050565b7f51756f746173206c656e677468206d69736d6174636800000000000000000000600082015250565b60006147056016836132e4565b9150614710826146cf565b602082019050919050565b60006020820190508181036000830152614734816146f8565b9050919050565b7f4f7267616e697a6572206665652063616e277420626520313030250000000000600082015250565b6000614771601b836132e4565b915061477c8261473b565b602082019050919050565b600060208201905081810360008301526147a081614764565b9050919050565b60006147b282613394565b91506147bd83613394565b9250827fffffffffffffffffffffffffffffffffffffffffffffffffffffffffffffffff038211156147f2576147f161436b565b5b828201905092915050565b7f4e487b7100000000000000000000000000000000000000000000000000000000600052603260045260246000fd5b600081905092915050565b6000614842826132d9565b61484c818561482c565b935061485c8185602086016132f5565b80840191505092915050565b60006148748284614837565b915081905092915050565b7f45524337323155524953746f726167653a2055524920717565727920666f722060008201527f6e6f6e6578697374656e7420746f6b656e000000000000000000000000000000602082015250565b60006148db6031836132e4565b91506148e68261487f565b604082019050919050565b6000602082019050818103600083015261490a816148ce565b9050919050565b600061491d8285614837565b91506149298284614837565b91508190509392505050565b7f4d61782034207469636b65747320706572207573657200000000000000000000600082015250565b600061496b6016836132e4565b915061497682614935565b602082019050919050565b6000602082019050818103600083015261499a8161495e565b9050919050565b7f4f7267616e697a65722063616e27742062757900000000000000000000000000600082015250565b60006149d76013836132e4565b91506149e2826149a1565b602082019050919050565b60006020820190508181036000830152614a06816149ca565b9050919050565b7f4576656e74206861732073746172746564000000000000000000000000000000600082015250565b6000614a436011836132e4565b9150614a4e82614a0d565b602082019050919050565b60006020820190508181036000830152614a7281614a36565b9050919050565b7f4576656e742069732063616e63656c6c65640000000000000000000000000000600082015250565b6000614aaf6012836132e4565b9150614aba82614a79565b602082019050919050565b60006020820190508181036000830152614ade81614aa2565b9050919050565b7f4576656e7420697320636f6d706c657465640000000000000000000000000000600082015250565b6000614b1b6012836132e4565b9150614b2682614ae5565b602082019050919050565b60006020820190508181036000830152614b4a81614b0e565b9050919050565b6000614b5c82613394565b9150614b6783613394565b9250817fffffffffffffffffffffffffffffffffffffffffffffffffffffffffffffffff0483118215151615614ba057614b9f61436b565b5b828202905092915050565b7f496e73756666696369656e74207061796d656e74000000000000000000000000600082015250565b6000614be16014836132e4565b9150614bec82614bab565b602082019050919050565b60006020820190508181036000830152614c1081614bd4565b9050919050565b7f536f6c64206f7574000000000000000000000000000000000000000000000000600082015250565b6000614c4d6008836132e4565b9150614c5882614c17565b602082019050919050565b60006020820190508181036000830152614c7c81614c40565b9050919050565b7f4f776e61626c653a206e6577206f776e657220697320746865207a65726f206160008201527f6464726573730000000000000000000000000000000000000000000000000000602082015250565b6000614cdf6026836132e4565b9150614cea82614c83565b604082019050919050565b60006020820190508181036000830152614d0e81614cd2565b9050919050565b7f4552433732313a206f70657261746f7220717565727920666f72206e6f6e657860008201527f697374656e7420746f6b656e0000000000000000000000000000000000000000602082015250565b6000614d71602c836132e4565b9150614d7c82614d15565b604082019050919050565b60006020820190508181036000830152614da081614d64565b9050919050565b7f4552433732313a207472616e736665722066726f6d20696e636f72726563742060008201527f6f776e6572000000000000000000000000000000000000000000000000000000602082015250565b6000614e036025836132e4565b9150614e0e82614da7565b604082019050919050565b60006020820190508181036000830152614e3281614df6565b9050919050565b7f4552433732313a207472616e7366657220746f20746865207a65726f2061646460008201527f7265737300000000000000000000000000000000000000000000000000000000602082015250565b6000614e956024836132e4565b9150614ea082614e39565b604082019050919050565b60006020820190508181036000830152614ec481614e88565b9050919050565b7f4e487b7100000000000000000000000000000000000000000000000000000000600052601260045260246000fd5b6000614f0582613394565b9150614f1083613394565b925082614f2057614f1f614ecb565b5b828204905092915050565b7f45524337323155524953746f726167653a2055524920736574206f66206e6f6e60008201527f6578697374656e7420746f6b656e000000000000000000000000000000000000602082015250565b6000614f87602e836132e4565b9150614f9282614f2b565b604082019050919050565b60006020820190508181036000830152614fb681614f7a565b9050919050565b7f4552433732313a20617070726f766520746f2063616c6c657200000000000000600082015250565b6000614ff36019836132e4565b9150614ffe82614fbd565b602082019050919050565b6000602082019050818103600083015261502281614fe6565b9050919050565b7f4552433732313a207472616e7366657220746f206e6f6e20455243373231526560008201527f63656976657220696d706c656d656e7465720000000000000000000000000000602082015250565b60006150856032836132e4565b915061509082615029565b604082019050919050565b600060208201905081810360008301526150b481615078565b9050919050565b7f4552433732314d657461646174613a2055524920717565727920666f72206e6f60008201527f6e6578697374656e7420746f6b656e0000000000000000000000000000000000602082015250565b6000615117602f836132e4565b9150615122826150bb565b604082019050919050565b600060208201905081810360008301526151468161510a565b9050919050565b600081519050919050565b600082825260208201905092915050565b60006151748261514d565b61517e8185615158565b935061518e8185602086016132f5565b61519781613328565b840191505092915050565b60006080820190506151b76000830187613429565b6151c46020830186613429565b6151d160408301856134ff565b81810360608301526151e38184615169565b905095945050505050565b6000815190506151fd8161324a565b92915050565b60006020828403121561521957615218613214565b5b6000615227848285016151ee565b91505092915050565b600061523b82613394565b915061524683613394565b92508261525657615255614ecb565b5b828206905092915050565b7f4552433732313a206d696e7420746f20746865207a65726f2061646472657373600082015250565b60006152976020836132e4565b91506152a282615261565b602082019050919050565b600060208201905081810360008301526152c68161528a565b9050919050565b7f4552433732313a20746f6b656e20616c7265616479206d696e74656400000000600082015250565b6000615303601c836132e4565b915061530e826152cd565b602082019050919050565b60006020820190508181036000830152615332816152f6565b905091905056fea2646970667358221220dc915aa122e068658c503b14ad199407baa160988e40e0dfa6bedb2866d3fd6f64736f6c634300080a0033",
  "linkReferences": {},
  "deployedLinkReferences": {}
}